{
  "contractName": "Hospital",
  "abi": [
    {
      "constant": false,
      "inputs": [
        {
          "name": "_owner",
          "type": "address"
        }
      ],
      "name": "setOwner",
      "outputs": [
        {
          "name": "success",
          "type": "bool"
        }
      ],
      "payable": false,
      "stateMutability": "nonpayable",
      "type": "function"
    },
    {
      "constant": false,
      "inputs": [
        {
          "name": "_address",
          "type": "address"
        }
      ],
      "name": "removeAdmin",
      "outputs": [
        {
          "name": "success",
          "type": "bool"
        }
      ],
      "payable": false,
      "stateMutability": "nonpayable",
      "type": "function"
    },
    {
      "constant": true,
      "inputs": [],
      "name": "index",
      "outputs": [
        {
          "name": "",
          "type": "uint256"
        }
      ],
      "payable": false,
      "stateMutability": "view",
      "type": "function"
    },
    {
      "constant": false,
      "inputs": [
        {
          "name": "_address",
          "type": "address"
        }
      ],
      "name": "addAdmin",
      "outputs": [
        {
          "name": "success",
          "type": "bool"
        }
      ],
      "payable": false,
      "stateMutability": "nonpayable",
      "type": "function"
    },
    {
      "constant": true,
      "inputs": [],
      "name": "owner",
      "outputs": [
        {
          "name": "",
          "type": "address"
        }
      ],
      "payable": false,
      "stateMutability": "view",
      "type": "function"
    },
    {
      "constant": true,
      "inputs": [
        {
          "name": "",
          "type": "uint256"
        }
      ],
      "name": "hospitalList",
      "outputs": [
        {
          "name": "",
          "type": "address"
        }
      ],
      "payable": false,
      "stateMutability": "view",
      "type": "function"
    },
    {
      "anonymous": false,
      "inputs": [
        {
          "indexed": true,
          "name": "_from",
          "type": "address"
        },
        {
          "indexed": true,
          "name": "_to",
          "type": "address"
        }
      ],
      "name": "OwnerChanged",
      "type": "event"
    },
    {
      "anonymous": false,
      "inputs": [
        {
          "indexed": true,
          "name": "Admin_Address",
          "type": "address"
        }
      ],
      "name": "AdminAdded",
      "type": "event"
    },
    {
      "anonymous": false,
      "inputs": [
        {
          "indexed": true,
          "name": "Admin_Address",
          "type": "address"
        }
      ],
      "name": "AdminRemoved",
      "type": "event"
    },
    {
      "constant": false,
      "inputs": [
        {
          "name": "_hname",
          "type": "string"
        },
        {
          "name": "_haddress",
          "type": "string"
        },
        {
          "name": "_hcontact",
          "type": "string"
        },
        {
          "name": "_addr",
          "type": "address"
        }
      ],
      "name": "addHospital",
      "outputs": [],
      "payable": false,
      "stateMutability": "nonpayable",
      "type": "function"
    },
    {
      "constant": true,
      "inputs": [
        {
          "name": "_id",
          "type": "uint256"
        }
      ],
      "name": "getHospitalById",
      "outputs": [
        {
          "name": "id",
          "type": "uint256"
        },
        {
          "name": "hname",
          "type": "string"
        },
        {
          "name": "haddress",
          "type": "string"
        },
        {
          "name": "hcontact",
          "type": "string"
        },
        {
          "name": "addr",
          "type": "address"
        },
        {
          "name": "isApproved",
          "type": "bool"
        }
      ],
      "payable": false,
      "stateMutability": "view",
      "type": "function"
    },
    {
      "constant": true,
      "inputs": [
        {
          "name": "_address",
          "type": "address"
        }
      ],
      "name": "getHospitalByAddress",
      "outputs": [
        {
          "name": "id",
          "type": "uint256"
        },
        {
          "name": "hname",
          "type": "string"
        },
        {
          "name": "haddress",
          "type": "string"
        },
        {
          "name": "hcontact",
          "type": "string"
        },
        {
          "name": "addr",
          "type": "address"
        },
        {
          "name": "isApproved",
          "type": "bool"
        }
      ],
      "payable": false,
      "stateMutability": "view",
      "type": "function"
    }
  ],
  "bytecode": "0x6080604052336000806101000a81548173ffffffffffffffffffffffffffffffffffffffff021916908373ffffffffffffffffffffffffffffffffffffffff16021790555060018060003373ffffffffffffffffffffffffffffffffffffffff1673ffffffffffffffffffffffffffffffffffffffff16815260200190815260200160002060006101000a81548160ff021916908315150217905550611ca3806100aa6000396000f3fe608060405260043610610099576000357c0100000000000000000000000000000000000000000000000000000000900463ffffffff16806313af40351461009e5780631785f53c146100db5780632986c0e51461011857806344125aa61461014357806351928b2c1461018557806370480275146101c75780638da5cb5b14610204578063beef8d761461022f578063c82412b914610258575b600080fd5b3480156100aa57600080fd5b506100c560048036036100c091908101906115a6565b610295565b6040516100d29190611982565b60405180910390f35b3480156100e757600080fd5b5061010260048036036100fd91908101906115a6565b61043c565b60405161010f9190611982565b60405180910390f35b34801561012457600080fd5b5061012d610693565b60405161013a9190611abd565b60405180910390f35b34801561014f57600080fd5b5061016a6004803603610165919081019061167a565b610699565b60405161017c96959493929190611ad8565b60405180910390f35b34801561019157600080fd5b506101ac60048036036101a791908101906115a6565b610b37565b6040516101be96959493929190611ad8565b60405180910390f35b3480156101d357600080fd5b506101ee60048036036101e991908101906115a6565b610ec5565b6040516101fb9190611982565b60405180910390f35b34801561021057600080fd5b5061021961108a565b6040516102269190611967565b60405180910390f35b34801561023b57600080fd5b50610256600480360361025191908101906115cf565b6110af565b005b34801561026457600080fd5b5061027f600480360361027a919081019061167a565b6113f6565b60405161028c9190611967565b60405180910390f35b60003373ffffffffffffffffffffffffffffffffffffffff166000809054906101000a900473ffffffffffffffffffffffffffffffffffffffff1673ffffffffffffffffffffffffffffffffffffffff16141515610328576040517f08c379a000000000000000000000000000000000000000000000000000000000815260040161031f906119bd565b60405180910390fd5b8173ffffffffffffffffffffffffffffffffffffffff163373ffffffffffffffffffffffffffffffffffffffff1614151515610399576040517f08c379a0000000000000000000000000000000000000000000000000000000008152600401610390906119dd565b60405180910390fd5b816000806101000a81548173ffffffffffffffffffffffffffffffffffffffff021916908373ffffffffffffffffffffffffffffffffffffffff1602179055508173ffffffffffffffffffffffffffffffffffffffff163373ffffffffffffffffffffffffffffffffffffffff167fb532073b38c83145e3e5135377a08bf9aab55bc0fd7c1179cd4fb995d2a5159c60405160405180910390a360019050919050565b60003373ffffffffffffffffffffffffffffffffffffffff166000809054906101000a900473ffffffffffffffffffffffffffffffffffffffff1673ffffffffffffffffffffffffffffffffffffffff161415156104cf576040517f08c379a00000000000000000000000000000000000000000000000000000000081526004016104c6906119bd565b60405180910390fd5b6000809054906101000a900473ffffffffffffffffffffffffffffffffffffffff1673ffffffffffffffffffffffffffffffffffffffff168273ffffffffffffffffffffffffffffffffffffffff1614151515610561576040517f08c379a00000000000000000000000000000000000000000000000000000000081526004016105589061199d565b60405180910390fd5b600160008373ffffffffffffffffffffffffffffffffffffffff1673ffffffffffffffffffffffffffffffffffffffff16815260200190815260200160002060009054906101000a900460ff1615156105ef576040517f08c379a00000000000000000000000000000000000000000000000000000000081526004016105e6906119fd565b60405180910390fd5b6000600160008473ffffffffffffffffffffffffffffffffffffffff1673ffffffffffffffffffffffffffffffffffffffff16815260200190815260200160002060006101000a81548160ff0219169083151502179055508173ffffffffffffffffffffffffffffffffffffffff167fa3b62bc36326052d97ea62d63c3d60308ed4c3ea8ac079dd8499f1e9c4f80c0f60405160405180910390a260019050919050565b60025481565b6000606080606060008060008090505b60058054905081101561074b5787600460006005848154811015156106ca57fe5b9060005260206000200160009054906101000a900473ffffffffffffffffffffffffffffffffffffffff1673ffffffffffffffffffffffffffffffffffffffff1673ffffffffffffffffffffffffffffffffffffffff16815260200190815260200160002060000154141561073e5761074b565b80806001019150506106a9565b876004600060058481548110151561075f57fe5b9060005260206000200160009054906101000a900473ffffffffffffffffffffffffffffffffffffffff1673ffffffffffffffffffffffffffffffffffffffff1673ffffffffffffffffffffffffffffffffffffffff1681526020019081526020016000206000015414151561080a576040517f08c379a000000000000000000000000000000000000000000000000000000000815260040161080190611a7d565b60405180910390fd5b610812611434565b6004600060058481548110151561082557fe5b9060005260206000200160009054906101000a900473ffffffffffffffffffffffffffffffffffffffff1673ffffffffffffffffffffffffffffffffffffffff1673ffffffffffffffffffffffffffffffffffffffff16815260200190815260200160002060c0604051908101604052908160008201548152602001600182018054600181600116156101000203166002900480601f0160208091040260200160405190810160405280929190818152602001828054600181600116156101000203166002900480156109395780601f1061090e57610100808354040283529160200191610939565b820191906000526020600020905b81548152906001019060200180831161091c57829003601f168201915b50505050508152602001600282018054600181600116156101000203166002900480601f0160208091040260200160405190810160405280929190818152602001828054600181600116156101000203166002900480156109db5780601f106109b0576101008083540402835291602001916109db565b820191906000526020600020905b8154815290600101906020018083116109be57829003601f168201915b50505050508152602001600382018054600181600116156101000203166002900480601f016020809104026020016040519081016040528092919081815260200182805460018160011615610100020316600290048015610a7d5780601f10610a5257610100808354040283529160200191610a7d565b820191906000526020600020905b815481529060010190602001808311610a6057829003601f168201915b505050505081526020016004820160009054906101000a900473ffffffffffffffffffffffffffffffffffffffff1673ffffffffffffffffffffffffffffffffffffffff1673ffffffffffffffffffffffffffffffffffffffff1681526020016004820160149054906101000a900460ff1615151515815250509050806000015181602001518260400151836060015184608001518560a00151849450839350829250975097509750975097509750505091939550919395565b60006060806060600080600460008873ffffffffffffffffffffffffffffffffffffffff1673ffffffffffffffffffffffffffffffffffffffff16815260200190815260200160002060040160149054906101000a900460ff161515610bd2576040517f08c379a0000000000000000000000000000000000000000000000000000000008152600401610bc990611a3d565b60405180910390fd5b610bda611434565b600460008973ffffffffffffffffffffffffffffffffffffffff1673ffffffffffffffffffffffffffffffffffffffff16815260200190815260200160002060c0604051908101604052908160008201548152602001600182018054600181600116156101000203166002900480601f016020809104026020016040519081016040528092919081815260200182805460018160011615610100020316600290048015610cc85780601f10610c9d57610100808354040283529160200191610cc8565b820191906000526020600020905b815481529060010190602001808311610cab57829003601f168201915b50505050508152602001600282018054600181600116156101000203166002900480601f016020809104026020016040519081016040528092919081815260200182805460018160011615610100020316600290048015610d6a5780601f10610d3f57610100808354040283529160200191610d6a565b820191906000526020600020905b815481529060010190602001808311610d4d57829003601f168201915b50505050508152602001600382018054600181600116156101000203166002900480601f016020809104026020016040519081016040528092919081815260200182805460018160011615610100020316600290048015610e0c5780601f10610de157610100808354040283529160200191610e0c565b820191906000526020600020905b815481529060010190602001808311610def57829003601f168201915b505050505081526020016004820160009054906101000a900473ffffffffffffffffffffffffffffffffffffffff1673ffffffffffffffffffffffffffffffffffffffff1673ffffffffffffffffffffffffffffffffffffffff1681526020016004820160149054906101000a900460ff1615151515815250509050806000015181602001518260400151836060015184608001518560a001518494508393508292509650965096509650965096505091939550919395565b60003373ffffffffffffffffffffffffffffffffffffffff166000809054906101000a900473ffffffffffffffffffffffffffffffffffffffff1673ffffffffffffffffffffffffffffffffffffffff16141515610f58576040517f08c379a0000000000000000000000000000000000000000000000000000000008152600401610f4f906119bd565b60405180910390fd5b600160008373ffffffffffffffffffffffffffffffffffffffff1673ffffffffffffffffffffffffffffffffffffffff16815260200190815260200160002060009054906101000a900460ff16151515610fe7576040517f08c379a0000000000000000000000000000000000000000000000000000000008152600401610fde90611a5d565b60405180910390fd5b60018060008473ffffffffffffffffffffffffffffffffffffffff1673ffffffffffffffffffffffffffffffffffffffff16815260200190815260200160002060006101000a81548160ff0219169083151502179055508173ffffffffffffffffffffffffffffffffffffffff167f44d6d25963f097ad14f29f06854a01f575648a1ef82f30e562ccd3889717e33960405160405180910390a260019050919050565b6000809054906101000a900473ffffffffffffffffffffffffffffffffffffffff1681565b60011515600160003373ffffffffffffffffffffffffffffffffffffffff1673ffffffffffffffffffffffffffffffffffffffff16815260200190815260200160002060009054906101000a900460ff161515141515611144576040517f08c379a000000000000000000000000000000000000000000000000000000000815260040161113b90611a9d565b60405180910390fd5b600360008273ffffffffffffffffffffffffffffffffffffffff1673ffffffffffffffffffffffffffffffffffffffff16815260200190815260200160002060009054906101000a900460ff161515156111d3576040517f08c379a00000000000000000000000000000000000000000000000000000000081526004016111ca90611a1d565b60405180910390fd5b60058190806001815401808255809150509060018203906000526020600020016000909192909190916101000a81548173ffffffffffffffffffffffffffffffffffffffff021916908373ffffffffffffffffffffffffffffffffffffffff160217905550506001600254016002819055506001600360008373ffffffffffffffffffffffffffffffffffffffff1673ffffffffffffffffffffffffffffffffffffffff16815260200190815260200160002060006101000a81548160ff02191690831515021790555060c06040519081016040528060025481526020018581526020018481526020018381526020018273ffffffffffffffffffffffffffffffffffffffff16815260200160011515815250600460008373ffffffffffffffffffffffffffffffffffffffff1673ffffffffffffffffffffffffffffffffffffffff16815260200190815260200160002060008201518160000155602082015181600101908051906020019061134b929190611483565b506040820151816002019080519060200190611368929190611483565b506060820151816003019080519060200190611385929190611483565b5060808201518160040160006101000a81548173ffffffffffffffffffffffffffffffffffffffff021916908373ffffffffffffffffffffffffffffffffffffffff16021790555060a08201518160040160146101000a81548160ff02191690831515021790555090505050505050565b60058181548110151561140557fe5b906000526020600020016000915054906101000a900473ffffffffffffffffffffffffffffffffffffffff1681565b60c06040519081016040528060008152602001606081526020016060815260200160608152602001600073ffffffffffffffffffffffffffffffffffffffff1681526020016000151581525090565b828054600181600116156101000203166002900490600052602060002090601f016020900481019282601f106114c457805160ff19168380011785556114f2565b828001600101855582156114f2579182015b828111156114f15782518255916020019190600101906114d6565b5b5090506114ff9190611503565b5090565b61152591905b80821115611521576000816000905550600101611509565b5090565b90565b60006115348235611bfa565b905092915050565b600082601f830112151561154f57600080fd5b813561156261155d82611b7b565b611b4e565b9150808252602083016020830185838301111561157e57600080fd5b611589838284611c16565b50505092915050565b600061159e8235611c0c565b905092915050565b6000602082840312156115b857600080fd5b60006115c684828501611528565b91505092915050565b600080600080608085870312156115e557600080fd5b600085013567ffffffffffffffff8111156115ff57600080fd5b61160b8782880161153c565b945050602085013567ffffffffffffffff81111561162857600080fd5b6116348782880161153c565b935050604085013567ffffffffffffffff81111561165157600080fd5b61165d8782880161153c565b925050606061166e87828801611528565b91505092959194509250565b60006020828403121561168c57600080fd5b600061169a84828501611592565b91505092915050565b6116ac81611bb2565b82525050565b6116bb81611bc4565b82525050565b60006116cc82611ba7565b8084526116e0816020860160208601611c25565b6116e981611c58565b602085010191505092915050565b6000601d82527f43616e27742072656d6f7665206f776e65722066726f6d2061646d696e0000006020830152604082019050919050565b6000602b82527f4f6e6c79204f776e657220686173207065726d697373696f6e20746f20646f2060208301527f7468617420616374696f6e0000000000000000000000000000000000000000006040830152606082019050919050565b6000601682527f416c726561647920596f757220746865206f776e6572000000000000000000006020830152604082019050919050565b6000601982527f55736572206e6f742061646d696e20616c7265616479212121000000000000006020830152604082019050919050565b6000601282527f416c7265616479206120486f73706974616c00000000000000000000000000006020830152604082019050919050565b6000602982527f486f73706974616c206973206e6f7420417070726f766564206f7220646f657360208301527f6e277420657869737400000000000000000000000000000000000000000000006040830152606082019050919050565b6000601a82527f5573657220697320616c726561647920612061646d696e2121210000000000006020830152604082019050919050565b6000601a82527f486f73706974616c20494420646f65736e2774206578697374730000000000006020830152604082019050919050565b6000602b82527f4f6e6c792041646d696e20686173207065726d697373696f6e20746f20646f2060208301527f7468617420616374696f6e0000000000000000000000000000000000000000006040830152606082019050919050565b61196181611bf0565b82525050565b600060208201905061197c60008301846116a3565b92915050565b600060208201905061199760008301846116b2565b92915050565b600060208201905081810360008301526119b6816116f7565b9050919050565b600060208201905081810360008301526119d68161172e565b9050919050565b600060208201905081810360008301526119f68161178b565b9050919050565b60006020820190508181036000830152611a16816117c2565b9050919050565b60006020820190508181036000830152611a36816117f9565b9050919050565b60006020820190508181036000830152611a5681611830565b9050919050565b60006020820190508181036000830152611a768161188d565b9050919050565b60006020820190508181036000830152611a96816118c4565b9050919050565b60006020820190508181036000830152611ab6816118fb565b9050919050565b6000602082019050611ad26000830184611958565b92915050565b600060c082019050611aed6000830189611958565b8181036020830152611aff81886116c1565b90508181036040830152611b1381876116c1565b90508181036060830152611b2781866116c1565b9050611b3660808301856116a3565b611b4360a08301846116b2565b979650505050505050565b6000604051905081810181811067ffffffffffffffff82111715611b7157600080fd5b8060405250919050565b600067ffffffffffffffff821115611b9257600080fd5b601f19601f8301169050602081019050919050565b600081519050919050565b6000611bbd82611bd0565b9050919050565b60008115159050919050565b600073ffffffffffffffffffffffffffffffffffffffff82169050919050565b6000819050919050565b6000611c0582611bd0565b9050919050565b6000819050919050565b82818337600083830152505050565b60005b83811015611c43578082015181840152602081019050611c28565b83811115611c52576000848401525b50505050565b6000601f19601f830116905091905056fea265627a7a723058208b1b3b496e63978daaf39baac731bd70caa6973ab2da5c572530b57284c4ac1b6c6578706572696d656e74616cf50037",
  "source": "/**\n *Submitted for verification at Etherscan.io on 2020-10-02\n*/\n\npragma solidity >=0.4.22 <0.7.0;\npragma experimental ABIEncoderV2;\n\ncontract ownable {\n    \n    address public owner;\n    mapping(address=>bool) isAdmin;\n    event OwnerChanged(address indexed _from,address indexed _to);\n    event AdminAdded(address indexed Admin_Address);\n    event AdminRemoved(address indexed Admin_Address);\n    constructor() public{\n        owner=msg.sender;\n        isAdmin[msg.sender]=true;\n    }\n    \n    modifier onlyOwner(){\n        require(owner == msg.sender,\"Only Owner has permission to do that action\");\n        _;\n    }\n    modifier onlyAdmin(){\n        require(isAdmin[msg.sender] == true,\"Only Admin has permission to do that action\");\n        _;\n    }\n    \n    function setOwner(address _owner) public onlyOwner returns(bool success){\n        require(msg.sender!=_owner,\"Already Your the owner\");\n        owner = _owner;\n        emit OwnerChanged(msg.sender, _owner);\n        return true;\n    }\n    function addAdmin(address _address) public onlyOwner returns(bool success){\n        require(!isAdmin[_address],\"User is already a admin!!!\");\n        isAdmin[_address]=true;\n        emit AdminAdded(_address);\n        return true;\n    }\n    function removeAdmin(address _address) public onlyOwner returns(bool success){\n        require(_address!=owner,\"Can't remove owner from admin\");\n        require(isAdmin[_address],\"User not admin already!!!\");\n        isAdmin[_address]=false;\n        emit AdminRemoved(_address);\n        return true;\n    }\n}\n\n\n\ncontract Hospital is ownable {\n    uint256 public index;\n    mapping(address=>bool) isHospital;\n    struct hospital {\n        uint256 id;\n        string hname;\n        string haddress;\n        string hcontact;\n        address addr;\n        bool isApproved;\n    }\n    mapping(address=>hospital) hospitals;\n    address[] public hospitalList;\n    \n    modifier onlyHospital(){\n        require(isHospital[msg.sender],\"Only Hospitals can add patient\");\n        _;\n    }\n    \n    function addHospital(string memory _hname,string memory _haddress,string memory _hcontact,address _addr) public onlyAdmin{\n        require(!isHospital[_addr],\"Already a Hospital\");\n        hospitalList.push(_addr);\n        index = index + 1;\n        isHospital[_addr]=true;\n        hospitals[_addr]=hospital(index,_hname,_haddress,_hcontact,_addr,true);\n    }\n    \n    function getHospitalById(uint256 _id) public view returns(uint256 id,string memory hname,string memory haddress , string memory hcontact ,address addr , bool isApproved)  {\n        uint256 i=0;\n        for(;i<hospitalList.length;i++){\n        if(hospitals[hospitalList[i]].id==_id){\n            break;\n        }\n    }    \n        require(hospitals[hospitalList[i]].id==_id,\"Hospital ID doesn't exists\");\n        hospital memory tmp = hospitals[hospitalList[i]];\n        return (tmp.id,tmp.hname,tmp.haddress,tmp.hcontact,tmp.addr,tmp.isApproved);\n    }\n    \n    function getHospitalByAddress(address _address) public view returns(uint256 id,string memory hname,string memory haddress , string memory hcontact ,address addr , bool isApproved) {\n        require(hospitals[_address].isApproved,\"Hospital is not Approved or doesn't exist\");\n        hospital memory tmp = hospitals[_address];\n        return (tmp.id,tmp.hname,tmp.haddress,tmp.hcontact,tmp.addr,tmp.isApproved);\n    }    \n    \n}\n\ncontract Patient is Hospital{\n    \n    uint256 public pindex=0;\n    \n    struct Records {\n    string hname;\n    string reason;\n    string admittedOn;\n    string dischargedOn;\n    string ipfs;\n    }\n    \n    struct patient{\n        uint256 id;\n        string name;\n        string phone;\n        string gender;\n        string dob;\n        string bloodgroup;\n        string allergies;\n        Records[] records;\n        address addr;\n    }\n\n    address[] private patientList;\n    mapping(address=>mapping(address=>bool)) isAuth;\n    mapping(address=>patient) patients;\n    mapping(address=>bool) isPatient;\n\n    \n    function addRecord(address _addr,string memory _hname,string memory _reason,string memory _admittedOn,string memory _dischargedOn,string memory _ipfs) public{\n        require(isPatient[_addr],\"User Not registered\");\n        require(isAuth[_addr][msg.sender],\"No permission to add Records\");\n        patients[_addr].records.push(Records(_hname,_reason,_admittedOn,_dischargedOn,_ipfs));\n        \n    }\n    \n    function addPatient(string memory _name,string memory _phone,string memory _gender,string memory _dob,string memory _bloodgroup,string memory _allergies) public {\n        require(!isPatient[msg.sender],\"Already Patient account exists\");\n        patientList.push(msg.sender);\n        pindex = pindex + 1;\n        isPatient[msg.sender]=true;\n        isAuth[msg.sender][msg.sender]=true;\n        patients[msg.sender].id=pindex;\n        patients[msg.sender].name=_name;\n        patients[msg.sender].phone=_phone;\n        patients[msg.sender].gender=_gender;\n        patients[msg.sender].dob=_dob;\n        patients[msg.sender].bloodgroup=_bloodgroup;\n        patients[msg.sender].allergies=_allergies;\n        patients[msg.sender].addr=msg.sender;\n    }\n    \n    function getPatientDetails(address _addr) public view returns(string memory _name,string memory _phone,string memory _gender,string memory _dob,string memory _bloodgroup,string memory _allergies){\n        require(isAuth[_addr][msg.sender],\"No permission to get Records\");\n        require(isPatient[_addr],\"No Patients found at the given address\");\n        patient memory tmp = patients[_addr];\n        return (tmp.name,tmp.phone,tmp.gender,tmp.dob,tmp.bloodgroup,tmp.allergies);\n    }\n    \n    function getPatientRecords(address _addr) public view returns(string[] memory _hname,string[] memory _reason,string[] memory _admittedOn,string[] memory _dischargedOn,string[] memory ipfs){\n        require(isAuth[_addr][msg.sender],\"No permission to get Records\");\n        require(isPatient[_addr],\"patient not signed in to our network\");\n        require(patients[_addr].records.length>0,\"patient record doesn't exist\");\n        string[] memory Hname = new string[](patients[_addr].records.length);\n        string[] memory Reason = new string[](patients[_addr].records.length);\n        string[] memory AdmOn = new string[](patients[_addr].records.length);\n        string[] memory DisOn = new string[](patients[_addr].records.length);\n        string[] memory IPFS = new string[](patients[_addr].records.length);\n        for(uint256 i=0;i<patients[_addr].records.length;i++){\n            Hname[i]=patients[_addr].records[i].hname;\n            Reason[i]=patients[_addr].records[i].reason;\n            AdmOn[i]=patients[_addr].records[i].admittedOn;\n            DisOn[i]=patients[_addr].records[i].dischargedOn;\n            IPFS[i]=patients[_addr].records[i].ipfs;\n        }\n        return(Hname,Reason,AdmOn,DisOn,IPFS);\n    }\n    \n    function addAuth(address _addr) public returns(bool success) {\n        require(!isAuth[msg.sender][_addr],\"Already Authorised\");\n        require(msg.sender!=_addr,\"Cant add yourself\");\n        isAuth[msg.sender][_addr] = true;\n        return true;\n    }\n\n    function revokeAuth(address _addr) public returns(bool success) {\n        require(msg.sender!=_addr,\"Cant remove yourself\");\n        require(isAuth[msg.sender][_addr],\"Already Not Authorised\");\n        isAuth[msg.sender][_addr] = false;\n        return true;\n    }\n    \n    function addAuthFromTo(address _from,address _to) public returns(bool success) {\n        require(!isAuth[_from][_to],\"Already  Auth!!!\");\n        require(_from!=_to,\"can't add same person\");\n        require(isAuth[_from][msg.sender],\"You don't have permission to access\");\n        require(isPatient[_from],\"User Not Registered yet\");\n        isAuth[_from][_to] = true;\n        return true;\n    }\n    \n    function removeAuthFromTo(address _from,address _to) public returns(bool success) {\n        require(isAuth[_from][_to],\"Already No Auth!!!\");\n        require(_from!=_to,\"can't remove same person\");\n        require(isAuth[_from][msg.sender],\"You don't have permission to access\");\n        require(isPatient[_from],\"User Not Registered yet\");\n        isAuth[_from][_to] = false;\n        return true;\n    }\n    \n\n}",
  "sourcePath": "C:/Users/HP/Documents/IT465/Project_file_upload4/contracts/SmartContract.sol",
  "compiler": {
    "name": "solc",
    "version": "0.5.0+commit.1d4f565a.Emscripten.clang"
  },
  "schemaVersion": "3.0.1",
  "updatedAt": "2022-11-02T05:36:00.812Z",
  "devdoc": {
    "methods": {}
  },
  "userdoc": {
    "methods": {}
  }
}