{
  "contractName": "Patient",
  "abi": [
    {
      "constant": false,
      "inputs": [
        {
          "name": "_owner",
          "type": "address"
        }
      ],
      "name": "setOwner",
      "outputs": [
        {
          "name": "success",
          "type": "bool"
        }
      ],
      "payable": false,
      "stateMutability": "nonpayable",
      "type": "function",
      "signature": "0x13af4035"
    },
    {
      "constant": false,
      "inputs": [
        {
          "name": "_address",
          "type": "address"
        }
      ],
      "name": "removeAdmin",
      "outputs": [
        {
          "name": "success",
          "type": "bool"
        }
      ],
      "payable": false,
      "stateMutability": "nonpayable",
      "type": "function",
      "signature": "0x1785f53c"
    },
    {
      "constant": true,
      "inputs": [],
      "name": "index",
      "outputs": [
        {
          "name": "",
          "type": "uint256"
        }
      ],
      "payable": false,
      "stateMutability": "view",
      "type": "function",
      "signature": "0x2986c0e5"
    },
    {
      "constant": true,
      "inputs": [
        {
          "name": "_id",
          "type": "uint256"
        }
      ],
      "name": "getHospitalById",
      "outputs": [
        {
          "name": "id",
          "type": "uint256"
        },
        {
          "name": "hname",
          "type": "string"
        },
        {
          "name": "haddress",
          "type": "string"
        },
        {
          "name": "hcontact",
          "type": "string"
        },
        {
          "name": "addr",
          "type": "address"
        },
        {
          "name": "isApproved",
          "type": "bool"
        }
      ],
      "payable": false,
      "stateMutability": "view",
      "type": "function",
      "signature": "0x44125aa6"
    },
    {
      "constant": true,
      "inputs": [
        {
          "name": "_address",
          "type": "address"
        }
      ],
      "name": "getHospitalByAddress",
      "outputs": [
        {
          "name": "id",
          "type": "uint256"
        },
        {
          "name": "hname",
          "type": "string"
        },
        {
          "name": "haddress",
          "type": "string"
        },
        {
          "name": "hcontact",
          "type": "string"
        },
        {
          "name": "addr",
          "type": "address"
        },
        {
          "name": "isApproved",
          "type": "bool"
        }
      ],
      "payable": false,
      "stateMutability": "view",
      "type": "function",
      "signature": "0x51928b2c"
    },
    {
      "constant": true,
      "inputs": [],
      "name": "pindex",
      "outputs": [
        {
          "name": "",
          "type": "uint256"
        }
      ],
      "payable": false,
      "stateMutability": "view",
      "type": "function",
      "signature": "0x5658e43b"
    },
    {
      "constant": false,
      "inputs": [
        {
          "name": "_address",
          "type": "address"
        }
      ],
      "name": "addAdmin",
      "outputs": [
        {
          "name": "success",
          "type": "bool"
        }
      ],
      "payable": false,
      "stateMutability": "nonpayable",
      "type": "function",
      "signature": "0x70480275"
    },
    {
      "constant": true,
      "inputs": [],
      "name": "owner",
      "outputs": [
        {
          "name": "",
          "type": "address"
        }
      ],
      "payable": false,
      "stateMutability": "view",
      "type": "function",
      "signature": "0x8da5cb5b"
    },
    {
      "constant": false,
      "inputs": [
        {
          "name": "_hname",
          "type": "string"
        },
        {
          "name": "_haddress",
          "type": "string"
        },
        {
          "name": "_hcontact",
          "type": "string"
        },
        {
          "name": "_addr",
          "type": "address"
        }
      ],
      "name": "addHospital",
      "outputs": [],
      "payable": false,
      "stateMutability": "nonpayable",
      "type": "function",
      "signature": "0xbeef8d76"
    },
    {
      "constant": true,
      "inputs": [
        {
          "name": "",
          "type": "uint256"
        }
      ],
      "name": "hospitalList",
      "outputs": [
        {
          "name": "",
          "type": "address"
        }
      ],
      "payable": false,
      "stateMutability": "view",
      "type": "function",
      "signature": "0xc82412b9"
    },
    {
      "anonymous": false,
      "inputs": [
        {
          "indexed": true,
          "name": "_from",
          "type": "address"
        },
        {
          "indexed": true,
          "name": "_to",
          "type": "address"
        }
      ],
      "name": "OwnerChanged",
      "type": "event",
      "signature": "0xb532073b38c83145e3e5135377a08bf9aab55bc0fd7c1179cd4fb995d2a5159c"
    },
    {
      "anonymous": false,
      "inputs": [
        {
          "indexed": true,
          "name": "Admin_Address",
          "type": "address"
        }
      ],
      "name": "AdminAdded",
      "type": "event",
      "signature": "0x44d6d25963f097ad14f29f06854a01f575648a1ef82f30e562ccd3889717e339"
    },
    {
      "anonymous": false,
      "inputs": [
        {
          "indexed": true,
          "name": "Admin_Address",
          "type": "address"
        }
      ],
      "name": "AdminRemoved",
      "type": "event",
      "signature": "0xa3b62bc36326052d97ea62d63c3d60308ed4c3ea8ac079dd8499f1e9c4f80c0f"
    },
    {
      "constant": false,
      "inputs": [
        {
          "name": "_addr",
          "type": "address"
        },
        {
          "name": "_hname",
          "type": "string"
        },
        {
          "name": "_reason",
          "type": "string"
        },
        {
          "name": "_admittedOn",
          "type": "string"
        },
        {
          "name": "_dischargedOn",
          "type": "string"
        },
        {
          "name": "_ipfs",
          "type": "string"
        }
      ],
      "name": "addRecord",
      "outputs": [],
      "payable": false,
      "stateMutability": "nonpayable",
      "type": "function",
      "signature": "0xef264a21"
    },
    {
      "constant": false,
      "inputs": [
        {
          "name": "_name",
          "type": "string"
        },
        {
          "name": "_phone",
          "type": "string"
        },
        {
          "name": "_gender",
          "type": "string"
        },
        {
          "name": "_dob",
          "type": "string"
        },
        {
          "name": "_bloodgroup",
          "type": "string"
        },
        {
          "name": "_allergies",
          "type": "string"
        }
      ],
      "name": "addPatient",
      "outputs": [],
      "payable": false,
      "stateMutability": "nonpayable",
      "type": "function",
      "signature": "0xa4f3cc23"
    },
    {
      "constant": true,
      "inputs": [
        {
          "name": "_addr",
          "type": "address"
        }
      ],
      "name": "getPatientDetails",
      "outputs": [
        {
          "name": "_name",
          "type": "string"
        },
        {
          "name": "_phone",
          "type": "string"
        },
        {
          "name": "_gender",
          "type": "string"
        },
        {
          "name": "_dob",
          "type": "string"
        },
        {
          "name": "_bloodgroup",
          "type": "string"
        },
        {
          "name": "_allergies",
          "type": "string"
        }
      ],
      "payable": false,
      "stateMutability": "view",
      "type": "function",
      "signature": "0xefe2ccc1"
    },
    {
      "constant": true,
      "inputs": [
        {
          "name": "_addr",
          "type": "address"
        }
      ],
      "name": "getPatientRecords",
      "outputs": [
        {
          "name": "_hname",
          "type": "string[]"
        },
        {
          "name": "_reason",
          "type": "string[]"
        },
        {
          "name": "_admittedOn",
          "type": "string[]"
        },
        {
          "name": "_dischargedOn",
          "type": "string[]"
        },
        {
          "name": "ipfs",
          "type": "string[]"
        }
      ],
      "payable": false,
      "stateMutability": "view",
      "type": "function",
      "signature": "0x18bd4847"
    },
    {
      "constant": false,
      "inputs": [
        {
          "name": "_addr",
          "type": "address"
        }
      ],
      "name": "addAuth",
      "outputs": [
        {
          "name": "success",
          "type": "bool"
        }
      ],
      "payable": false,
      "stateMutability": "nonpayable",
      "type": "function",
      "signature": "0x5422224e"
    },
    {
      "constant": false,
      "inputs": [
        {
          "name": "_addr",
          "type": "address"
        }
      ],
      "name": "revokeAuth",
      "outputs": [
        {
          "name": "success",
          "type": "bool"
        }
      ],
      "payable": false,
      "stateMutability": "nonpayable",
      "type": "function",
      "signature": "0xf8171dfa"
    },
    {
      "constant": false,
      "inputs": [
        {
          "name": "_from",
          "type": "address"
        },
        {
          "name": "_to",
          "type": "address"
        }
      ],
      "name": "addAuthFromTo",
      "outputs": [
        {
          "name": "success",
          "type": "bool"
        }
      ],
      "payable": false,
      "stateMutability": "nonpayable",
      "type": "function",
      "signature": "0xe0d23e11"
    },
    {
      "constant": false,
      "inputs": [
        {
          "name": "_from",
          "type": "address"
        },
        {
          "name": "_to",
          "type": "address"
        }
      ],
      "name": "removeAuthFromTo",
      "outputs": [
        {
          "name": "success",
          "type": "bool"
        }
      ],
      "payable": false,
      "stateMutability": "nonpayable",
      "type": "function",
      "signature": "0x0c3c45a0"
    }
  ],
  "bytecode": "0x60806040526000600655336000806101000a81548173ffffffffffffffffffffffffffffffffffffffff021916908373ffffffffffffffffffffffffffffffffffffffff16021790555060018060003373ffffffffffffffffffffffffffffffffffffffff1673ffffffffffffffffffffffffffffffffffffffff16815260200190815260200160002060006101000a81548160ff021916908315150217905550614fb8806100af6000396000f3fe6080604052600436106100fc576000357c0100000000000000000000000000000000000000000000000000000000900463ffffffff1680630c3c45a01461010157806313af40351461013e5780631785f53c1461017b57806318bd4847146101b85780632986c0e5146101f957806344125aa61461022457806351928b2c146102665780635422224e146102a85780635658e43b146102e557806370480275146103105780638da5cb5b1461034d578063a4f3cc2314610378578063beef8d76146103a1578063c82412b9146103ca578063e0d23e1114610407578063ef264a2114610444578063efe2ccc11461046d578063f8171dfa146104af575b600080fd5b34801561010d57600080fd5b5061012860048036036101239190810190613e80565b6104ec565b60405161013591906149bc565b60405180910390f35b34801561014a57600080fd5b5061016560048036036101609190810190613e57565b610822565b60405161017291906149bc565b60405180910390f35b34801561018757600080fd5b506101a2600480360361019d9190810190613e57565b6109c9565b6040516101af91906149bc565b60405180910390f35b3480156101c457600080fd5b506101df60048036036101da9190810190613e57565b610c20565b6040516101f0959493929190614946565b60405180910390f35b34801561020557600080fd5b5061020e611663565b60405161021b9190614da2565b60405180910390f35b34801561023057600080fd5b5061024b60048036036102469190810190614181565b611669565b60405161025d96959493929190614dbd565b60405180910390f35b34801561027257600080fd5b5061028d60048036036102889190810190613e57565b611b07565b60405161029f96959493929190614dbd565b60405180910390f35b3480156102b457600080fd5b506102cf60048036036102ca9190810190613e57565b611e95565b6040516102dc91906149bc565b60405180910390f35b3480156102f157600080fd5b506102fa612072565b6040516103079190614da2565b60405180910390f35b34801561031c57600080fd5b5061033760048036036103329190810190613e57565b612078565b60405161034491906149bc565b60405180910390f35b34801561035957600080fd5b5061036261223d565b60405161036f919061492b565b60405180910390f35b34801561038457600080fd5b5061039f600480360361039a9190810190614068565b612262565b005b3480156103ad57600080fd5b506103c860048036036103c39190810190613fbd565b61272c565b005b3480156103d657600080fd5b506103f160048036036103ec9190810190614181565b612a73565b6040516103fe919061492b565b60405180910390f35b34801561041357600080fd5b5061042e60048036036104299190810190613e80565b612ab1565b60405161043b91906149bc565b60405180910390f35b34801561045057600080fd5b5061046b60048036036104669190810190613ebc565b612de8565b005b34801561047957600080fd5b50610494600480360361048f9190810190613e57565b613072565b6040516104a6969594939291906149d7565b60405180910390f35b3480156104bb57600080fd5b506104d660048036036104d19190810190613e57565b613a26565b6040516104e391906149bc565b60405180910390f35b6000600860008473ffffffffffffffffffffffffffffffffffffffff1673ffffffffffffffffffffffffffffffffffffffff16815260200190815260200160002060008373ffffffffffffffffffffffffffffffffffffffff1673ffffffffffffffffffffffffffffffffffffffff16815260200190815260200160002060009054906101000a900460ff1615156105b9576040517f08c379a00000000000000000000000000000000000000000000000000000000081526004016105b090614c42565b60405180910390fd5b8173ffffffffffffffffffffffffffffffffffffffff168373ffffffffffffffffffffffffffffffffffffffff161415151561062a576040517f08c379a000000000000000000000000000000000000000000000000000000000815260040161062190614d22565b60405180910390fd5b600860008473ffffffffffffffffffffffffffffffffffffffff1673ffffffffffffffffffffffffffffffffffffffff16815260200190815260200160002060003373ffffffffffffffffffffffffffffffffffffffff1673ffffffffffffffffffffffffffffffffffffffff16815260200190815260200160002060009054906101000a900460ff1615156106f5576040517f08c379a00000000000000000000000000000000000000000000000000000000081526004016106ec90614c02565b60405180910390fd5b600a60008473ffffffffffffffffffffffffffffffffffffffff1673ffffffffffffffffffffffffffffffffffffffff16815260200190815260200160002060009054906101000a900460ff161515610783576040517f08c379a000000000000000000000000000000000000000000000000000000000815260040161077a90614c22565b60405180910390fd5b6000600860008573ffffffffffffffffffffffffffffffffffffffff1673ffffffffffffffffffffffffffffffffffffffff16815260200190815260200160002060008473ffffffffffffffffffffffffffffffffffffffff1673ffffffffffffffffffffffffffffffffffffffff16815260200190815260200160002060006101000a81548160ff0219169083151502179055506001905092915050565b60003373ffffffffffffffffffffffffffffffffffffffff166000809054906101000a900473ffffffffffffffffffffffffffffffffffffffff1673ffffffffffffffffffffffffffffffffffffffff161415156108b5576040517f08c379a00000000000000000000000000000000000000000000000000000000081526004016108ac90614ac2565b60405180910390fd5b8173ffffffffffffffffffffffffffffffffffffffff163373ffffffffffffffffffffffffffffffffffffffff1614151515610926576040517f08c379a000000000000000000000000000000000000000000000000000000000815260040161091d90614b22565b60405180910390fd5b816000806101000a81548173ffffffffffffffffffffffffffffffffffffffff021916908373ffffffffffffffffffffffffffffffffffffffff1602179055508173ffffffffffffffffffffffffffffffffffffffff163373ffffffffffffffffffffffffffffffffffffffff167fb532073b38c83145e3e5135377a08bf9aab55bc0fd7c1179cd4fb995d2a5159c60405160405180910390a360019050919050565b60003373ffffffffffffffffffffffffffffffffffffffff166000809054906101000a900473ffffffffffffffffffffffffffffffffffffffff1673ffffffffffffffffffffffffffffffffffffffff16141515610a5c576040517f08c379a0000000000000000000000000000000000000000000000000000000008152600401610a5390614ac2565b60405180910390fd5b6000809054906101000a900473ffffffffffffffffffffffffffffffffffffffff1673ffffffffffffffffffffffffffffffffffffffff168273ffffffffffffffffffffffffffffffffffffffff1614151515610aee576040517f08c379a0000000000000000000000000000000000000000000000000000000008152600401610ae590614a82565b60405180910390fd5b600160008373ffffffffffffffffffffffffffffffffffffffff1673ffffffffffffffffffffffffffffffffffffffff16815260200190815260200160002060009054906101000a900460ff161515610b7c576040517f08c379a0000000000000000000000000000000000000000000000000000000008152600401610b7390614b42565b60405180910390fd5b6000600160008473ffffffffffffffffffffffffffffffffffffffff1673ffffffffffffffffffffffffffffffffffffffff16815260200190815260200160002060006101000a81548160ff0219169083151502179055508173ffffffffffffffffffffffffffffffffffffffff167fa3b62bc36326052d97ea62d63c3d60308ed4c3ea8ac079dd8499f1e9c4f80c0f60405160405180910390a260019050919050565b6060806060806060600860008773ffffffffffffffffffffffffffffffffffffffff1673ffffffffffffffffffffffffffffffffffffffff16815260200190815260200160002060003373ffffffffffffffffffffffffffffffffffffffff1673ffffffffffffffffffffffffffffffffffffffff16815260200190815260200160002060009054906101000a900460ff161515610cf3576040517f08c379a0000000000000000000000000000000000000000000000000000000008152600401610cea90614ba2565b60405180910390fd5b600a60008773ffffffffffffffffffffffffffffffffffffffff1673ffffffffffffffffffffffffffffffffffffffff16815260200190815260200160002060009054906101000a900460ff161515610d81576040517f08c379a0000000000000000000000000000000000000000000000000000000008152600401610d7890614ae2565b60405180910390fd5b6000600960008873ffffffffffffffffffffffffffffffffffffffff1673ffffffffffffffffffffffffffffffffffffffff16815260200190815260200160002060070180549050111515610e0b576040517f08c379a0000000000000000000000000000000000000000000000000000000008152600401610e0290614a62565b60405180910390fd5b6060600960008873ffffffffffffffffffffffffffffffffffffffff1673ffffffffffffffffffffffffffffffffffffffff16815260200190815260200160002060070180549050604051908082528060200260200182016040528015610e8657816020015b6060815260200190600190039081610e715790505b5090506060600960008973ffffffffffffffffffffffffffffffffffffffff1673ffffffffffffffffffffffffffffffffffffffff16815260200190815260200160002060070180549050604051908082528060200260200182016040528015610f0457816020015b6060815260200190600190039081610eef5790505b5090506060600960008a73ffffffffffffffffffffffffffffffffffffffff1673ffffffffffffffffffffffffffffffffffffffff16815260200190815260200160002060070180549050604051908082528060200260200182016040528015610f8257816020015b6060815260200190600190039081610f6d5790505b5090506060600960008b73ffffffffffffffffffffffffffffffffffffffff1673ffffffffffffffffffffffffffffffffffffffff1681526020019081526020016000206007018054905060405190808252806020026020018201604052801561100057816020015b6060815260200190600190039081610feb5790505b5090506060600960008c73ffffffffffffffffffffffffffffffffffffffff1673ffffffffffffffffffffffffffffffffffffffff1681526020019081526020016000206007018054905060405190808252806020026020018201604052801561107e57816020015b60608152602001906001900390816110695790505b50905060008090505b600960008d73ffffffffffffffffffffffffffffffffffffffff1673ffffffffffffffffffffffffffffffffffffffff1681526020019081526020016000206007018054905081101561164557600960008d73ffffffffffffffffffffffffffffffffffffffff1673ffffffffffffffffffffffffffffffffffffffff1681526020019081526020016000206007018181548110151561112357fe5b90600052602060002090600502016000018054600181600116156101000203166002900480601f0160208091040260200160405190810160405280929190818152602001828054600181600116156101000203166002900480156111c85780601f1061119d576101008083540402835291602001916111c8565b820191906000526020600020905b8154815290600101906020018083116111ab57829003601f168201915b505050505086828151811015156111db57fe5b90602001906020020181905250600960008d73ffffffffffffffffffffffffffffffffffffffff1673ffffffffffffffffffffffffffffffffffffffff1681526020019081526020016000206007018181548110151561123757fe5b90600052602060002090600502016001018054600181600116156101000203166002900480601f0160208091040260200160405190810160405280929190818152602001828054600181600116156101000203166002900480156112dc5780601f106112b1576101008083540402835291602001916112dc565b820191906000526020600020905b8154815290600101906020018083116112bf57829003601f168201915b505050505085828151811015156112ef57fe5b90602001906020020181905250600960008d73ffffffffffffffffffffffffffffffffffffffff1673ffffffffffffffffffffffffffffffffffffffff1681526020019081526020016000206007018181548110151561134b57fe5b90600052602060002090600502016002018054600181600116156101000203166002900480601f0160208091040260200160405190810160405280929190818152602001828054600181600116156101000203166002900480156113f05780601f106113c5576101008083540402835291602001916113f0565b820191906000526020600020905b8154815290600101906020018083116113d357829003601f168201915b5050505050848281518110151561140357fe5b90602001906020020181905250600960008d73ffffffffffffffffffffffffffffffffffffffff1673ffffffffffffffffffffffffffffffffffffffff1681526020019081526020016000206007018181548110151561145f57fe5b90600052602060002090600502016003018054600181600116156101000203166002900480601f0160208091040260200160405190810160405280929190818152602001828054600181600116156101000203166002900480156115045780601f106114d957610100808354040283529160200191611504565b820191906000526020600020905b8154815290600101906020018083116114e757829003601f168201915b5050505050838281518110151561151757fe5b90602001906020020181905250600960008d73ffffffffffffffffffffffffffffffffffffffff1673ffffffffffffffffffffffffffffffffffffffff1681526020019081526020016000206007018181548110151561157357fe5b90600052602060002090600502016004018054600181600116156101000203166002900480601f0160208091040260200160405190810160405280929190818152602001828054600181600116156101000203166002900480156116185780601f106115ed57610100808354040283529160200191611618565b820191906000526020600020905b8154815290600101906020018083116115fb57829003601f168201915b5050505050828281518110151561162b57fe5b906020019060200201819052508080600101915050611087565b50848484848499509950995099509950505050505091939590929450565b60025481565b6000606080606060008060008090505b60058054905081101561171b57876004600060058481548110151561169a57fe5b9060005260206000200160009054906101000a900473ffffffffffffffffffffffffffffffffffffffff1673ffffffffffffffffffffffffffffffffffffffff1673ffffffffffffffffffffffffffffffffffffffff16815260200190815260200160002060000154141561170e5761171b565b8080600101915050611679565b876004600060058481548110151561172f57fe5b9060005260206000200160009054906101000a900473ffffffffffffffffffffffffffffffffffffffff1673ffffffffffffffffffffffffffffffffffffffff1673ffffffffffffffffffffffffffffffffffffffff168152602001908152602001600020600001541415156117da576040517f08c379a00000000000000000000000000000000000000000000000000000000081526004016117d190614d02565b60405180910390fd5b6117e2613c02565b600460006005848154811015156117f557fe5b9060005260206000200160009054906101000a900473ffffffffffffffffffffffffffffffffffffffff1673ffffffffffffffffffffffffffffffffffffffff1673ffffffffffffffffffffffffffffffffffffffff16815260200190815260200160002060c0604051908101604052908160008201548152602001600182018054600181600116156101000203166002900480601f0160208091040260200160405190810160405280929190818152602001828054600181600116156101000203166002900480156119095780601f106118de57610100808354040283529160200191611909565b820191906000526020600020905b8154815290600101906020018083116118ec57829003601f168201915b50505050508152602001600282018054600181600116156101000203166002900480601f0160208091040260200160405190810160405280929190818152602001828054600181600116156101000203166002900480156119ab5780601f10611980576101008083540402835291602001916119ab565b820191906000526020600020905b81548152906001019060200180831161198e57829003601f168201915b50505050508152602001600382018054600181600116156101000203166002900480601f016020809104026020016040519081016040528092919081815260200182805460018160011615610100020316600290048015611a4d5780601f10611a2257610100808354040283529160200191611a4d565b820191906000526020600020905b815481529060010190602001808311611a3057829003601f168201915b505050505081526020016004820160009054906101000a900473ffffffffffffffffffffffffffffffffffffffff1673ffffffffffffffffffffffffffffffffffffffff1673ffffffffffffffffffffffffffffffffffffffff1681526020016004820160149054906101000a900460ff1615151515815250509050806000015181602001518260400151836060015184608001518560a00151849450839350829250975097509750975097509750505091939550919395565b60006060806060600080600460008873ffffffffffffffffffffffffffffffffffffffff1673ffffffffffffffffffffffffffffffffffffffff16815260200190815260200160002060040160149054906101000a900460ff161515611ba2576040517f08c379a0000000000000000000000000000000000000000000000000000000008152600401611b9990614bc2565b60405180910390fd5b611baa613c02565b600460008973ffffffffffffffffffffffffffffffffffffffff1673ffffffffffffffffffffffffffffffffffffffff16815260200190815260200160002060c0604051908101604052908160008201548152602001600182018054600181600116156101000203166002900480601f016020809104026020016040519081016040528092919081815260200182805460018160011615610100020316600290048015611c985780601f10611c6d57610100808354040283529160200191611c98565b820191906000526020600020905b815481529060010190602001808311611c7b57829003601f168201915b50505050508152602001600282018054600181600116156101000203166002900480601f016020809104026020016040519081016040528092919081815260200182805460018160011615610100020316600290048015611d3a5780601f10611d0f57610100808354040283529160200191611d3a565b820191906000526020600020905b815481529060010190602001808311611d1d57829003601f168201915b50505050508152602001600382018054600181600116156101000203166002900480601f016020809104026020016040519081016040528092919081815260200182805460018160011615610100020316600290048015611ddc5780601f10611db157610100808354040283529160200191611ddc565b820191906000526020600020905b815481529060010190602001808311611dbf57829003601f168201915b505050505081526020016004820160009054906101000a900473ffffffffffffffffffffffffffffffffffffffff1673ffffffffffffffffffffffffffffffffffffffff1673ffffffffffffffffffffffffffffffffffffffff1681526020016004820160149054906101000a900460ff1615151515815250509050806000015181602001518260400151836060015184608001518560a001518494508393508292509650965096509650965096505091939550919395565b6000600860003373ffffffffffffffffffffffffffffffffffffffff1673ffffffffffffffffffffffffffffffffffffffff16815260200190815260200160002060008373ffffffffffffffffffffffffffffffffffffffff1673ffffffffffffffffffffffffffffffffffffffff16815260200190815260200160002060009054906101000a900460ff16151515611f63576040517f08c379a0000000000000000000000000000000000000000000000000000000008152600401611f5a90614cc2565b60405180910390fd5b8173ffffffffffffffffffffffffffffffffffffffff163373ffffffffffffffffffffffffffffffffffffffff1614151515611fd4576040517f08c379a0000000000000000000000000000000000000000000000000000000008152600401611fcb90614aa2565b60405180910390fd5b6001600860003373ffffffffffffffffffffffffffffffffffffffff1673ffffffffffffffffffffffffffffffffffffffff16815260200190815260200160002060008473ffffffffffffffffffffffffffffffffffffffff1673ffffffffffffffffffffffffffffffffffffffff16815260200190815260200160002060006101000a81548160ff02191690831515021790555060019050919050565b60065481565b60003373ffffffffffffffffffffffffffffffffffffffff166000809054906101000a900473ffffffffffffffffffffffffffffffffffffffff1673ffffffffffffffffffffffffffffffffffffffff1614151561210b576040517f08c379a000000000000000000000000000000000000000000000000000000000815260040161210290614ac2565b60405180910390fd5b600160008373ffffffffffffffffffffffffffffffffffffffff1673ffffffffffffffffffffffffffffffffffffffff16815260200190815260200160002060009054906101000a900460ff1615151561219a576040517f08c379a000000000000000000000000000000000000000000000000000000000815260040161219190614ca2565b60405180910390fd5b60018060008473ffffffffffffffffffffffffffffffffffffffff1673ffffffffffffffffffffffffffffffffffffffff16815260200190815260200160002060006101000a81548160ff0219169083151502179055508173ffffffffffffffffffffffffffffffffffffffff167f44d6d25963f097ad14f29f06854a01f575648a1ef82f30e562ccd3889717e33960405160405180910390a260019050919050565b6000809054906101000a900473ffffffffffffffffffffffffffffffffffffffff1681565b600a60003373ffffffffffffffffffffffffffffffffffffffff1673ffffffffffffffffffffffffffffffffffffffff16815260200190815260200160002060009054906101000a900460ff161515156122f1576040517f08c379a00000000000000000000000000000000000000000000000000000000081526004016122e890614b62565b60405180910390fd5b60073390806001815401808255809150509060018203906000526020600020016000909192909190916101000a81548173ffffffffffffffffffffffffffffffffffffffff021916908373ffffffffffffffffffffffffffffffffffffffff160217905550506001600654016006819055506001600a60003373ffffffffffffffffffffffffffffffffffffffff1673ffffffffffffffffffffffffffffffffffffffff16815260200190815260200160002060006101000a81548160ff0219169083151502179055506001600860003373ffffffffffffffffffffffffffffffffffffffff1673ffffffffffffffffffffffffffffffffffffffff16815260200190815260200160002060003373ffffffffffffffffffffffffffffffffffffffff1673ffffffffffffffffffffffffffffffffffffffff16815260200190815260200160002060006101000a81548160ff021916908315150217905550600654600960003373ffffffffffffffffffffffffffffffffffffffff1673ffffffffffffffffffffffffffffffffffffffff1681526020019081526020016000206000018190555085600960003373ffffffffffffffffffffffffffffffffffffffff1673ffffffffffffffffffffffffffffffffffffffff16815260200190815260200160002060010190805190602001906124ef929190613c51565b5084600960003373ffffffffffffffffffffffffffffffffffffffff1673ffffffffffffffffffffffffffffffffffffffff1681526020019081526020016000206002019080519060200190612546929190613c51565b5083600960003373ffffffffffffffffffffffffffffffffffffffff1673ffffffffffffffffffffffffffffffffffffffff168152602001908152602001600020600301908051906020019061259d929190613c51565b5082600960003373ffffffffffffffffffffffffffffffffffffffff1673ffffffffffffffffffffffffffffffffffffffff16815260200190815260200160002060040190805190602001906125f4929190613c51565b5081600960003373ffffffffffffffffffffffffffffffffffffffff1673ffffffffffffffffffffffffffffffffffffffff168152602001908152602001600020600501908051906020019061264b929190613c51565b5080600960003373ffffffffffffffffffffffffffffffffffffffff1673ffffffffffffffffffffffffffffffffffffffff16815260200190815260200160002060060190805190602001906126a2929190613c51565b5033600960003373ffffffffffffffffffffffffffffffffffffffff1673ffffffffffffffffffffffffffffffffffffffff16815260200190815260200160002060080160006101000a81548173ffffffffffffffffffffffffffffffffffffffff021916908373ffffffffffffffffffffffffffffffffffffffff160217905550505050505050565b60011515600160003373ffffffffffffffffffffffffffffffffffffffff1673ffffffffffffffffffffffffffffffffffffffff16815260200190815260200160002060009054906101000a900460ff1615151415156127c1576040517f08c379a00000000000000000000000000000000000000000000000000000000081526004016127b890614d42565b60405180910390fd5b600360008273ffffffffffffffffffffffffffffffffffffffff1673ffffffffffffffffffffffffffffffffffffffff16815260200190815260200160002060009054906101000a900460ff16151515612850576040517f08c379a000000000000000000000000000000000000000000000000000000000815260040161284790614b82565b60405180910390fd5b60058190806001815401808255809150509060018203906000526020600020016000909192909190916101000a81548173ffffffffffffffffffffffffffffffffffffffff021916908373ffffffffffffffffffffffffffffffffffffffff160217905550506001600254016002819055506001600360008373ffffffffffffffffffffffffffffffffffffffff1673ffffffffffffffffffffffffffffffffffffffff16815260200190815260200160002060006101000a81548160ff02191690831515021790555060c06040519081016040528060025481526020018581526020018481526020018381526020018273ffffffffffffffffffffffffffffffffffffffff16815260200160011515815250600460008373ffffffffffffffffffffffffffffffffffffffff1673ffffffffffffffffffffffffffffffffffffffff1681526020019081526020016000206000820151816000015560208201518160010190805190602001906129c8929190613cd1565b5060408201518160020190805190602001906129e5929190613cd1565b506060820151816003019080519060200190612a02929190613cd1565b5060808201518160040160006101000a81548173ffffffffffffffffffffffffffffffffffffffff021916908373ffffffffffffffffffffffffffffffffffffffff16021790555060a08201518160040160146101000a81548160ff02191690831515021790555090505050505050565b600581815481101515612a8257fe5b906000526020600020016000915054906101000a900473ffffffffffffffffffffffffffffffffffffffff1681565b6000600860008473ffffffffffffffffffffffffffffffffffffffff1673ffffffffffffffffffffffffffffffffffffffff16815260200190815260200160002060008373ffffffffffffffffffffffffffffffffffffffff1673ffffffffffffffffffffffffffffffffffffffff16815260200190815260200160002060009054906101000a900460ff16151515612b7f576040517f08c379a0000000000000000000000000000000000000000000000000000000008152600401612b7690614c82565b60405180910390fd5b8173ffffffffffffffffffffffffffffffffffffffff168373ffffffffffffffffffffffffffffffffffffffff1614151515612bf0576040517f08c379a0000000000000000000000000000000000000000000000000000000008152600401612be790614d82565b60405180910390fd5b600860008473ffffffffffffffffffffffffffffffffffffffff1673ffffffffffffffffffffffffffffffffffffffff16815260200190815260200160002060003373ffffffffffffffffffffffffffffffffffffffff1673ffffffffffffffffffffffffffffffffffffffff16815260200190815260200160002060009054906101000a900460ff161515612cbb576040517f08c379a0000000000000000000000000000000000000000000000000000000008152600401612cb290614c02565b60405180910390fd5b600a60008473ffffffffffffffffffffffffffffffffffffffff1673ffffffffffffffffffffffffffffffffffffffff16815260200190815260200160002060009054906101000a900460ff161515612d49576040517f08c379a0000000000000000000000000000000000000000000000000000000008152600401612d4090614c22565b60405180910390fd5b6001600860008573ffffffffffffffffffffffffffffffffffffffff1673ffffffffffffffffffffffffffffffffffffffff16815260200190815260200160002060008473ffffffffffffffffffffffffffffffffffffffff1673ffffffffffffffffffffffffffffffffffffffff16815260200190815260200160002060006101000a81548160ff0219169083151502179055506001905092915050565b600a60008773ffffffffffffffffffffffffffffffffffffffff1673ffffffffffffffffffffffffffffffffffffffff16815260200190815260200160002060009054906101000a900460ff161515612e76576040517f08c379a0000000000000000000000000000000000000000000000000000000008152600401612e6d90614c62565b60405180910390fd5b600860008773ffffffffffffffffffffffffffffffffffffffff1673ffffffffffffffffffffffffffffffffffffffff16815260200190815260200160002060003373ffffffffffffffffffffffffffffffffffffffff1673ffffffffffffffffffffffffffffffffffffffff16815260200190815260200160002060009054906101000a900460ff161515612f41576040517f08c379a0000000000000000000000000000000000000000000000000000000008152600401612f3890614d62565b60405180910390fd5b600960008773ffffffffffffffffffffffffffffffffffffffff1673ffffffffffffffffffffffffffffffffffffffff16815260200190815260200160002060070160a06040519081016040528087815260200186815260200185815260200184815260200183815250908060018154018082558091505090600182039060005260206000209060050201600090919290919091506000820151816000019080519060200190612ff2929190613cd1565b50602082015181600101908051906020019061300f929190613cd1565b50604082015181600201908051906020019061302c929190613cd1565b506060820151816003019080519060200190613049929190613cd1565b506080820151816004019080519060200190613066929190613cd1565b50505050505050505050565b606080606080606080600860008873ffffffffffffffffffffffffffffffffffffffff1673ffffffffffffffffffffffffffffffffffffffff16815260200190815260200160002060003373ffffffffffffffffffffffffffffffffffffffff1673ffffffffffffffffffffffffffffffffffffffff16815260200190815260200160002060009054906101000a900460ff161515613146576040517f08c379a000000000000000000000000000000000000000000000000000000000815260040161313d90614ba2565b60405180910390fd5b600a60008873ffffffffffffffffffffffffffffffffffffffff1673ffffffffffffffffffffffffffffffffffffffff16815260200190815260200160002060009054906101000a900460ff1615156131d4576040517f08c379a00000000000000000000000000000000000000000000000000000000081526004016131cb90614be2565b60405180910390fd5b6131dc613d51565b600960008973ffffffffffffffffffffffffffffffffffffffff1673ffffffffffffffffffffffffffffffffffffffff168152602001908152602001600020610120604051908101604052908160008201548152602001600182018054600181600116156101000203166002900480601f0160208091040260200160405190810160405280929190818152602001828054600181600116156101000203166002900480156132cb5780601f106132a0576101008083540402835291602001916132cb565b820191906000526020600020905b8154815290600101906020018083116132ae57829003601f168201915b50505050508152602001600282018054600181600116156101000203166002900480601f01602080910402602001604051908101604052809291908181526020018280546001816001161561010002031660029004801561336d5780601f106133425761010080835404028352916020019161336d565b820191906000526020600020905b81548152906001019060200180831161335057829003601f168201915b50505050508152602001600382018054600181600116156101000203166002900480601f01602080910402602001604051908101604052809291908181526020018280546001816001161561010002031660029004801561340f5780601f106133e45761010080835404028352916020019161340f565b820191906000526020600020905b8154815290600101906020018083116133f257829003601f168201915b50505050508152602001600482018054600181600116156101000203166002900480601f0160208091040260200160405190810160405280929190818152602001828054600181600116156101000203166002900480156134b15780601f10613486576101008083540402835291602001916134b1565b820191906000526020600020905b81548152906001019060200180831161349457829003601f168201915b50505050508152602001600582018054600181600116156101000203166002900480601f0160208091040260200160405190810160405280929190818152602001828054600181600116156101000203166002900480156135535780601f1061352857610100808354040283529160200191613553565b820191906000526020600020905b81548152906001019060200180831161353657829003601f168201915b50505050508152602001600682018054600181600116156101000203166002900480601f0160208091040260200160405190810160405280929190818152602001828054600181600116156101000203166002900480156135f55780601f106135ca576101008083540402835291602001916135f5565b820191906000526020600020905b8154815290600101906020018083116135d857829003601f168201915b5050505050815260200160078201805480602002602001604051908101604052809291908181526020016000905b82821015613980578382906000526020600020906005020160a06040519081016040529081600082018054600181600116156101000203166002900480601f0160208091040260200160405190810160405280929190818152602001828054600181600116156101000203166002900480156136e05780601f106136b5576101008083540402835291602001916136e0565b820191906000526020600020905b8154815290600101906020018083116136c357829003601f168201915b50505050508152602001600182018054600181600116156101000203166002900480601f0160208091040260200160405190810160405280929190818152602001828054600181600116156101000203166002900480156137825780601f1061375757610100808354040283529160200191613782565b820191906000526020600020905b81548152906001019060200180831161376557829003601f168201915b50505050508152602001600282018054600181600116156101000203166002900480601f0160208091040260200160405190810160405280929190818152602001828054600181600116156101000203166002900480156138245780601f106137f957610100808354040283529160200191613824565b820191906000526020600020905b81548152906001019060200180831161380757829003601f168201915b50505050508152602001600382018054600181600116156101000203166002900480601f0160208091040260200160405190810160405280929190818152602001828054600181600116156101000203166002900480156138c65780601f1061389b576101008083540402835291602001916138c6565b820191906000526020600020905b8154815290600101906020018083116138a957829003601f168201915b50505050508152602001600482018054600181600116156101000203166002900480601f0160208091040260200160405190810160405280929190818152602001828054600181600116156101000203166002900480156139685780601f1061393d57610100808354040283529160200191613968565b820191906000526020600020905b81548152906001019060200180831161394b57829003601f168201915b50505050508152505081526020019060010190613623565b5050505081526020016008820160009054906101000a900473ffffffffffffffffffffffffffffffffffffffff1673ffffffffffffffffffffffffffffffffffffffff1673ffffffffffffffffffffffffffffffffffffffff1681525050905080602001518160400151826060015183608001518460a001518560c001518595508494508393508292508191508090509650965096509650965096505091939550919395565b60008173ffffffffffffffffffffffffffffffffffffffff163373ffffffffffffffffffffffffffffffffffffffff1614151515613a99576040517f08c379a0000000000000000000000000000000000000000000000000000000008152600401613a9090614b02565b60405180910390fd5b600860003373ffffffffffffffffffffffffffffffffffffffff1673ffffffffffffffffffffffffffffffffffffffff16815260200190815260200160002060008373ffffffffffffffffffffffffffffffffffffffff1673ffffffffffffffffffffffffffffffffffffffff16815260200190815260200160002060009054906101000a900460ff161515613b64576040517f08c379a0000000000000000000000000000000000000000000000000000000008152600401613b5b90614ce2565b60405180910390fd5b6000600860003373ffffffffffffffffffffffffffffffffffffffff1673ffffffffffffffffffffffffffffffffffffffff16815260200190815260200160002060008473ffffffffffffffffffffffffffffffffffffffff1673ffffffffffffffffffffffffffffffffffffffff16815260200190815260200160002060006101000a81548160ff02191690831515021790555060019050919050565b60c06040519081016040528060008152602001606081526020016060815260200160608152602001600073ffffffffffffffffffffffffffffffffffffffff1681526020016000151581525090565b828054600181600116156101000203166002900490600052602060002090601f016020900481019282601f10613c9257805160ff1916838001178555613cc0565b82800160010185558215613cc0579182015b82811115613cbf578251825591602001919060010190613ca4565b5b509050613ccd9190613db4565b5090565b828054600181600116156101000203166002900490600052602060002090601f016020900481019282601f10613d1257805160ff1916838001178555613d40565b82800160010185558215613d40579182015b82811115613d3f578251825591602001919060010190613d24565b5b509050613d4d9190613db4565b5090565b610120604051908101604052806000815260200160608152602001606081526020016060815260200160608152602001606081526020016060815260200160608152602001600073ffffffffffffffffffffffffffffffffffffffff1681525090565b613dd691905b80821115613dd2576000816000905550600101613dba565b5090565b90565b6000613de58235614f0f565b905092915050565b600082601f8301121515613e0057600080fd5b8135613e13613e0e82614e60565b614e33565b91508082526020830160208301858383011115613e2f57600080fd5b613e3a838284614f2b565b50505092915050565b6000613e4f8235614f21565b905092915050565b600060208284031215613e6957600080fd5b6000613e7784828501613dd9565b91505092915050565b60008060408385031215613e9357600080fd5b6000613ea185828601613dd9565b9250506020613eb285828601613dd9565b9150509250929050565b60008060008060008060c08789031215613ed557600080fd5b6000613ee389828a01613dd9565b965050602087013567ffffffffffffffff811115613f0057600080fd5b613f0c89828a01613ded565b955050604087013567ffffffffffffffff811115613f2957600080fd5b613f3589828a01613ded565b945050606087013567ffffffffffffffff811115613f5257600080fd5b613f5e89828a01613ded565b935050608087013567ffffffffffffffff811115613f7b57600080fd5b613f8789828a01613ded565b92505060a087013567ffffffffffffffff811115613fa457600080fd5b613fb089828a01613ded565b9150509295509295509295565b60008060008060808587031215613fd357600080fd5b600085013567ffffffffffffffff811115613fed57600080fd5b613ff987828801613ded565b945050602085013567ffffffffffffffff81111561401657600080fd5b61402287828801613ded565b935050604085013567ffffffffffffffff81111561403f57600080fd5b61404b87828801613ded565b925050606061405c87828801613dd9565b91505092959194509250565b60008060008060008060c0878903121561408157600080fd5b600087013567ffffffffffffffff81111561409b57600080fd5b6140a789828a01613ded565b965050602087013567ffffffffffffffff8111156140c457600080fd5b6140d089828a01613ded565b955050604087013567ffffffffffffffff8111156140ed57600080fd5b6140f989828a01613ded565b945050606087013567ffffffffffffffff81111561411657600080fd5b61412289828a01613ded565b935050608087013567ffffffffffffffff81111561413f57600080fd5b61414b89828a01613ded565b92505060a087013567ffffffffffffffff81111561416857600080fd5b61417489828a01613ded565b9150509295509295509295565b60006020828403121561419357600080fd5b60006141a184828501613e43565b91505092915050565b6141b381614ec7565b82525050565b60006141c482614e99565b808452602084019350836020820285016141dd85614e8c565b60005b848110156142165783830388526141f883835161426c565b925061420382614eba565b91506020880197506001810190506141e0565b508196508694505050505092915050565b61423081614ed9565b82525050565b600061424182614eaf565b808452614255816020860160208601614f3a565b61425e81614f6d565b602085010191505092915050565b600061427782614ea4565b80845261428b816020860160208601614f3a565b61429481614f6d565b602085010191505092915050565b6000601c82527f70617469656e74207265636f726420646f65736e2774206578697374000000006020830152604082019050919050565b6000601d82527f43616e27742072656d6f7665206f776e65722066726f6d2061646d696e0000006020830152604082019050919050565b6000601182527f43616e742061646420796f757273656c660000000000000000000000000000006020830152604082019050919050565b6000602b82527f4f6e6c79204f776e657220686173207065726d697373696f6e20746f20646f2060208301527f7468617420616374696f6e0000000000000000000000000000000000000000006040830152606082019050919050565b6000602482527f70617469656e74206e6f74207369676e656420696e20746f206f7572206e657460208301527f776f726b000000000000000000000000000000000000000000000000000000006040830152606082019050919050565b6000601482527f43616e742072656d6f766520796f757273656c660000000000000000000000006020830152604082019050919050565b6000601682527f416c726561647920596f757220746865206f776e6572000000000000000000006020830152604082019050919050565b6000601982527f55736572206e6f742061646d696e20616c7265616479212121000000000000006020830152604082019050919050565b6000601e82527f416c72656164792050617469656e74206163636f756e742065786973747300006020830152604082019050919050565b6000601282527f416c7265616479206120486f73706974616c00000000000000000000000000006020830152604082019050919050565b6000601c82527f4e6f207065726d697373696f6e20746f20676574205265636f726473000000006020830152604082019050919050565b6000602982527f486f73706974616c206973206e6f7420417070726f766564206f7220646f657360208301527f6e277420657869737400000000000000000000000000000000000000000000006040830152606082019050919050565b6000602682527f4e6f2050617469656e747320666f756e642061742074686520676976656e206160208301527f64647265737300000000000000000000000000000000000000000000000000006040830152606082019050919050565b6000602382527f596f7520646f6e27742068617665207065726d697373696f6e20746f2061636360208301527f65737300000000000000000000000000000000000000000000000000000000006040830152606082019050919050565b6000601782527f55736572204e6f742052656769737465726564207965740000000000000000006020830152604082019050919050565b6000601282527f416c7265616479204e6f204175746821212100000000000000000000000000006020830152604082019050919050565b6000601382527f55736572204e6f742072656769737465726564000000000000000000000000006020830152604082019050919050565b6000601082527f416c7265616479202041757468212121000000000000000000000000000000006020830152604082019050919050565b6000601a82527f5573657220697320616c726561647920612061646d696e2121210000000000006020830152604082019050919050565b6000601282527f416c726561647920417574686f726973656400000000000000000000000000006020830152604082019050919050565b6000601682527f416c7265616479204e6f7420417574686f7269736564000000000000000000006020830152604082019050919050565b6000601a82527f486f73706974616c20494420646f65736e2774206578697374730000000000006020830152604082019050919050565b6000601882527f63616e27742072656d6f76652073616d6520706572736f6e00000000000000006020830152604082019050919050565b6000602b82527f4f6e6c792041646d696e20686173207065726d697373696f6e20746f20646f2060208301527f7468617420616374696f6e0000000000000000000000000000000000000000006040830152606082019050919050565b6000601c82527f4e6f207065726d697373696f6e20746f20616464205265636f726473000000006020830152604082019050919050565b6000601582527f63616e2774206164642073616d6520706572736f6e00000000000000000000006020830152604082019050919050565b61492581614f05565b82525050565b600060208201905061494060008301846141aa565b92915050565b600060a082019050818103600083015261496081886141b9565b9050818103602083015261497481876141b9565b9050818103604083015261498881866141b9565b9050818103606083015261499c81856141b9565b905081810360808301526149b081846141b9565b90509695505050505050565b60006020820190506149d16000830184614227565b92915050565b600060c08201905081810360008301526149f18189614236565b90508181036020830152614a058188614236565b90508181036040830152614a198187614236565b90508181036060830152614a2d8186614236565b90508181036080830152614a418185614236565b905081810360a0830152614a558184614236565b9050979650505050505050565b60006020820190508181036000830152614a7b816142a2565b9050919050565b60006020820190508181036000830152614a9b816142d9565b9050919050565b60006020820190508181036000830152614abb81614310565b9050919050565b60006020820190508181036000830152614adb81614347565b9050919050565b60006020820190508181036000830152614afb816143a4565b9050919050565b60006020820190508181036000830152614b1b81614401565b9050919050565b60006020820190508181036000830152614b3b81614438565b9050919050565b60006020820190508181036000830152614b5b8161446f565b9050919050565b60006020820190508181036000830152614b7b816144a6565b9050919050565b60006020820190508181036000830152614b9b816144dd565b9050919050565b60006020820190508181036000830152614bbb81614514565b9050919050565b60006020820190508181036000830152614bdb8161454b565b9050919050565b60006020820190508181036000830152614bfb816145a8565b9050919050565b60006020820190508181036000830152614c1b81614605565b9050919050565b60006020820190508181036000830152614c3b81614662565b9050919050565b60006020820190508181036000830152614c5b81614699565b9050919050565b60006020820190508181036000830152614c7b816146d0565b9050919050565b60006020820190508181036000830152614c9b81614707565b9050919050565b60006020820190508181036000830152614cbb8161473e565b9050919050565b60006020820190508181036000830152614cdb81614775565b9050919050565b60006020820190508181036000830152614cfb816147ac565b9050919050565b60006020820190508181036000830152614d1b816147e3565b9050919050565b60006020820190508181036000830152614d3b8161481a565b9050919050565b60006020820190508181036000830152614d5b81614851565b9050919050565b60006020820190508181036000830152614d7b816148ae565b9050919050565b60006020820190508181036000830152614d9b816148e5565b9050919050565b6000602082019050614db7600083018461491c565b92915050565b600060c082019050614dd2600083018961491c565b8181036020830152614de48188614236565b90508181036040830152614df88187614236565b90508181036060830152614e0c8186614236565b9050614e1b60808301856141aa565b614e2860a0830184614227565b979650505050505050565b6000604051905081810181811067ffffffffffffffff82111715614e5657600080fd5b8060405250919050565b600067ffffffffffffffff821115614e7757600080fd5b601f19601f8301169050602081019050919050565b6000602082019050919050565b600081519050919050565b600081519050919050565b600081519050919050565b6000602082019050919050565b6000614ed282614ee5565b9050919050565b60008115159050919050565b600073ffffffffffffffffffffffffffffffffffffffff82169050919050565b6000819050919050565b6000614f1a82614ee5565b9050919050565b6000819050919050565b82818337600083830152505050565b60005b83811015614f58578082015181840152602081019050614f3d565b83811115614f67576000848401525b50505050565b6000601f19601f830116905091905056fea265627a7a72305820563c630449ee8287167521c25b882baa1b729119fda1898a6711b1d68d295cea6c6578706572696d656e74616cf50037",
  "source": "/**\n *Submitted for verification at Etherscan.io on 2020-10-02\n*/\n\npragma solidity >=0.4.22 <0.7.0;\npragma experimental ABIEncoderV2;\n\ncontract ownable {\n    \n    address public owner;\n    mapping(address=>bool) isAdmin;\n    event OwnerChanged(address indexed _from,address indexed _to);\n    event AdminAdded(address indexed Admin_Address);\n    event AdminRemoved(address indexed Admin_Address);\n    constructor() public{\n        owner=msg.sender;\n        isAdmin[msg.sender]=true;\n    }\n    \n    modifier onlyOwner(){\n        require(owner == msg.sender,\"Only Owner has permission to do that action\");\n        _;\n    }\n    modifier onlyAdmin(){\n        require(isAdmin[msg.sender] == true,\"Only Admin has permission to do that action\");\n        _;\n    }\n    \n    function setOwner(address _owner) public onlyOwner returns(bool success){\n        require(msg.sender!=_owner,\"Already Your the owner\");\n        owner = _owner;\n        emit OwnerChanged(msg.sender, _owner);\n        return true;\n    }\n    function addAdmin(address _address) public onlyOwner returns(bool success){\n        require(!isAdmin[_address],\"User is already a admin!!!\");\n        isAdmin[_address]=true;\n        emit AdminAdded(_address);\n        return true;\n    }\n    function removeAdmin(address _address) public onlyOwner returns(bool success){\n        require(_address!=owner,\"Can't remove owner from admin\");\n        require(isAdmin[_address],\"User not admin already!!!\");\n        isAdmin[_address]=false;\n        emit AdminRemoved(_address);\n        return true;\n    }\n}\n\n\n\ncontract Hospital is ownable {\n    uint256 public index;\n    mapping(address=>bool) isHospital;\n    struct hospital {\n        uint256 id;\n        string hname;\n        string haddress;\n        string hcontact;\n        address addr;\n        bool isApproved;\n    }\n    mapping(address=>hospital) hospitals;\n    address[] public hospitalList;\n    \n    modifier onlyHospital(){\n        require(isHospital[msg.sender],\"Only Hospitals can add patient\");\n        _;\n    }\n    \n    function addHospital(string memory _hname,string memory _haddress,string memory _hcontact,address _addr) public onlyAdmin{\n        require(!isHospital[_addr],\"Already a Hospital\");\n        hospitalList.push(_addr);\n        index = index + 1;\n        isHospital[_addr]=true;\n        hospitals[_addr]=hospital(index,_hname,_haddress,_hcontact,_addr,true);\n    }\n    \n    function getHospitalById(uint256 _id) public view returns(uint256 id,string memory hname,string memory haddress , string memory hcontact ,address addr , bool isApproved)  {\n        uint256 i=0;\n        for(;i<hospitalList.length;i++){\n        if(hospitals[hospitalList[i]].id==_id){\n            break;\n        }\n    }    \n        require(hospitals[hospitalList[i]].id==_id,\"Hospital ID doesn't exists\");\n        hospital memory tmp = hospitals[hospitalList[i]];\n        return (tmp.id,tmp.hname,tmp.haddress,tmp.hcontact,tmp.addr,tmp.isApproved);\n    }\n    \n    function getHospitalByAddress(address _address) public view returns(uint256 id,string memory hname,string memory haddress , string memory hcontact ,address addr , bool isApproved) {\n        require(hospitals[_address].isApproved,\"Hospital is not Approved or doesn't exist\");\n        hospital memory tmp = hospitals[_address];\n        return (tmp.id,tmp.hname,tmp.haddress,tmp.hcontact,tmp.addr,tmp.isApproved);\n    }    \n    \n}\n\ncontract Patient is Hospital{\n    \n    uint256 public pindex=0;\n    \n    struct Records {\n    string hname;\n    string reason;\n    string admittedOn;\n    string dischargedOn;\n    string ipfs;\n    }\n    \n    struct patient{\n        uint256 id;\n        string name;\n        string phone;\n        string gender;\n        string dob;\n        string bloodgroup;\n        string allergies;\n        Records[] records;\n        address addr;\n    }\n\n    address[] private patientList;\n    mapping(address=>mapping(address=>bool)) isAuth;\n    mapping(address=>patient) patients;\n    mapping(address=>bool) isPatient;\n\n    \n    function addRecord(address _addr,string memory _hname,string memory _reason,string memory _admittedOn,string memory _dischargedOn,string memory _ipfs) public{\n        require(isPatient[_addr],\"User Not registered\");\n        require(isAuth[_addr][msg.sender],\"No permission to add Records\");\n        patients[_addr].records.push(Records(_hname,_reason,_admittedOn,_dischargedOn,_ipfs));\n        \n    }\n    \n    function addPatient(string memory _name,string memory _phone,string memory _gender,string memory _dob,string memory _bloodgroup,string memory _allergies) public {\n        require(!isPatient[msg.sender],\"Already Patient account exists\");\n        patientList.push(msg.sender);\n        pindex = pindex + 1;\n        isPatient[msg.sender]=true;\n        isAuth[msg.sender][msg.sender]=true;\n        patients[msg.sender].id=pindex;\n        patients[msg.sender].name=_name;\n        patients[msg.sender].phone=_phone;\n        patients[msg.sender].gender=_gender;\n        patients[msg.sender].dob=_dob;\n        patients[msg.sender].bloodgroup=_bloodgroup;\n        patients[msg.sender].allergies=_allergies;\n        patients[msg.sender].addr=msg.sender;\n    }\n    \n    function getPatientDetails(address _addr) public view returns(string memory _name,string memory _phone,string memory _gender,string memory _dob,string memory _bloodgroup,string memory _allergies){\n        require(isAuth[_addr][msg.sender],\"No permission to get Records\");\n        require(isPatient[_addr],\"No Patients found at the given address\");\n        patient memory tmp = patients[_addr];\n        return (tmp.name,tmp.phone,tmp.gender,tmp.dob,tmp.bloodgroup,tmp.allergies);\n    }\n    \n    function getPatientRecords(address _addr) public view returns(string[] memory _hname,string[] memory _reason,string[] memory _admittedOn,string[] memory _dischargedOn,string[] memory ipfs){\n        require(isAuth[_addr][msg.sender],\"No permission to get Records\");\n        require(isPatient[_addr],\"patient not signed in to our network\");\n        require(patients[_addr].records.length>0,\"patient record doesn't exist\");\n        string[] memory Hname = new string[](patients[_addr].records.length);\n        string[] memory Reason = new string[](patients[_addr].records.length);\n        string[] memory AdmOn = new string[](patients[_addr].records.length);\n        string[] memory DisOn = new string[](patients[_addr].records.length);\n        string[] memory IPFS = new string[](patients[_addr].records.length);\n        for(uint256 i=0;i<patients[_addr].records.length;i++){\n            Hname[i]=patients[_addr].records[i].hname;\n            Reason[i]=patients[_addr].records[i].reason;\n            AdmOn[i]=patients[_addr].records[i].admittedOn;\n            DisOn[i]=patients[_addr].records[i].dischargedOn;\n            IPFS[i]=patients[_addr].records[i].ipfs;\n        }\n        return(Hname,Reason,AdmOn,DisOn,IPFS);\n    }\n    \n    function addAuth(address _addr) public returns(bool success) {\n        require(!isAuth[msg.sender][_addr],\"Already Authorised\");\n        require(msg.sender!=_addr,\"Cant add yourself\");\n        isAuth[msg.sender][_addr] = true;\n        return true;\n    }\n\n    function revokeAuth(address _addr) public returns(bool success) {\n        require(msg.sender!=_addr,\"Cant remove yourself\");\n        require(isAuth[msg.sender][_addr],\"Already Not Authorised\");\n        isAuth[msg.sender][_addr] = false;\n        return true;\n    }\n    \n    function addAuthFromTo(address _from,address _to) public returns(bool success) {\n        require(!isAuth[_from][_to],\"Already  Auth!!!\");\n        require(_from!=_to,\"can't add same person\");\n        require(isAuth[_from][msg.sender],\"You don't have permission to access\");\n        require(isPatient[_from],\"User Not Registered yet\");\n        isAuth[_from][_to] = true;\n        return true;\n    }\n    \n    function removeAuthFromTo(address _from,address _to) public returns(bool success) {\n        require(isAuth[_from][_to],\"Already No Auth!!!\");\n        require(_from!=_to,\"can't remove same person\");\n        require(isAuth[_from][msg.sender],\"You don't have permission to access\");\n        require(isPatient[_from],\"User Not Registered yet\");\n        isAuth[_from][_to] = false;\n        return true;\n    }\n    \n\n}",
  "sourcePath": "C:/Users/HP/Documents/IT465/Project_file_upload4/contracts/SmartContract.sol",
  "compiler": {
    "name": "solc",
    "version": "0.5.0+commit.1d4f565a.Emscripten.clang"
  },
  "schemaVersion": "3.0.1",
  "updatedAt": "2022-11-02T14:42:56.415Z",
  "devdoc": {
    "methods": {}
  },
  "userdoc": {
    "methods": {}
  }
}