{
  "contractName": "Professor",
  "abi": [
    {
      "constant": false,
      "inputs": [
        {
          "name": "_owner",
          "type": "address"
        }
      ],
      "name": "setOwner",
      "outputs": [
        {
          "name": "success",
          "type": "bool"
        }
      ],
      "payable": false,
      "stateMutability": "nonpayable",
      "type": "function"
    },
    {
      "constant": true,
      "inputs": [],
      "name": "index",
      "outputs": [
        {
          "name": "",
          "type": "uint256"
        }
      ],
      "payable": false,
      "stateMutability": "view",
      "type": "function"
    },
    {
      "constant": false,
      "inputs": [
        {
          "name": "_address",
          "type": "address"
        }
      ],
      "name": "removeCollege",
      "outputs": [
        {
          "name": "success",
          "type": "bool"
        }
      ],
      "payable": false,
      "stateMutability": "nonpayable",
      "type": "function"
    },
    {
      "constant": true,
      "inputs": [],
      "name": "owner",
      "outputs": [
        {
          "name": "",
          "type": "address"
        }
      ],
      "payable": false,
      "stateMutability": "view",
      "type": "function"
    },
    {
      "constant": true,
      "inputs": [
        {
          "name": "",
          "type": "uint256"
        }
      ],
      "name": "ProfessorList",
      "outputs": [
        {
          "name": "",
          "type": "address"
        }
      ],
      "payable": false,
      "stateMutability": "view",
      "type": "function"
    },
    {
      "constant": false,
      "inputs": [
        {
          "name": "_address",
          "type": "address"
        }
      ],
      "name": "addCollege",
      "outputs": [
        {
          "name": "success",
          "type": "bool"
        }
      ],
      "payable": false,
      "stateMutability": "nonpayable",
      "type": "function"
    },
    {
      "anonymous": false,
      "inputs": [
        {
          "indexed": true,
          "name": "_from",
          "type": "address"
        },
        {
          "indexed": true,
          "name": "_to",
          "type": "address"
        }
      ],
      "name": "OwnerChanged",
      "type": "event"
    },
    {
      "anonymous": false,
      "inputs": [
        {
          "indexed": true,
          "name": "College_Address",
          "type": "address"
        }
      ],
      "name": "CollegeAdded",
      "type": "event"
    },
    {
      "anonymous": false,
      "inputs": [
        {
          "indexed": true,
          "name": "College_Address",
          "type": "address"
        }
      ],
      "name": "CollegeRemoved",
      "type": "event"
    },
    {
      "constant": false,
      "inputs": [
        {
          "name": "_hname",
          "type": "string"
        },
        {
          "name": "_haddress",
          "type": "string"
        },
        {
          "name": "_hcontact",
          "type": "string"
        },
        {
          "name": "_addr",
          "type": "address"
        }
      ],
      "name": "addProfessor",
      "outputs": [],
      "payable": false,
      "stateMutability": "nonpayable",
      "type": "function"
    },
    {
      "constant": true,
      "inputs": [
        {
          "name": "_id",
          "type": "uint256"
        }
      ],
      "name": "getProfessorById",
      "outputs": [
        {
          "name": "id",
          "type": "uint256"
        },
        {
          "name": "hname",
          "type": "string"
        },
        {
          "name": "haddress",
          "type": "string"
        },
        {
          "name": "hcontact",
          "type": "string"
        },
        {
          "name": "addr",
          "type": "address"
        },
        {
          "name": "isApproved",
          "type": "bool"
        }
      ],
      "payable": false,
      "stateMutability": "view",
      "type": "function"
    },
    {
      "constant": true,
      "inputs": [
        {
          "name": "_address",
          "type": "address"
        }
      ],
      "name": "getProfessorByAddress",
      "outputs": [
        {
          "name": "id",
          "type": "uint256"
        },
        {
          "name": "hname",
          "type": "string"
        },
        {
          "name": "haddress",
          "type": "string"
        },
        {
          "name": "hcontact",
          "type": "string"
        },
        {
          "name": "addr",
          "type": "address"
        },
        {
          "name": "isApproved",
          "type": "bool"
        }
      ],
      "payable": false,
      "stateMutability": "view",
      "type": "function"
    }
  ],
  "bytecode": "0x6080604052336000806101000a81548173ffffffffffffffffffffffffffffffffffffffff021916908373ffffffffffffffffffffffffffffffffffffffff16021790555060018060003373ffffffffffffffffffffffffffffffffffffffff1673ffffffffffffffffffffffffffffffffffffffff16815260200190815260200160002060006101000a81548160ff021916908315150217905550611cef806100aa6000396000f3fe608060405260043610610099576000357c0100000000000000000000000000000000000000000000000000000000900463ffffffff16806313af40351461009e5780632986c0e5146100db5780633d9f99f9146101065780638a58a943146101485780638da5cb5b14610185578063ac756842146101b0578063baf03bb2146101d9578063ea43fb201461021b578063fd36876114610258575b600080fd5b3480156100aa57600080fd5b506100c560048036036100c091908101906115a6565b610295565b6040516100d291906119ce565b60405180910390f35b3480156100e757600080fd5b506100f061043c565b6040516100fd9190611b09565b60405180910390f35b34801561011257600080fd5b5061012d600480360361012891908101906115a6565b610442565b60405161013f96959493929190611b24565b60405180910390f35b34801561015457600080fd5b5061016f600480360361016a91908101906115a6565b6107d0565b60405161017c91906119ce565b60405180910390f35b34801561019157600080fd5b5061019a610a27565b6040516101a791906119b3565b60405180910390f35b3480156101bc57600080fd5b506101d760048036036101d291908101906115cf565b610a4c565b005b3480156101e557600080fd5b5061020060048036036101fb919081019061167a565b610d93565b60405161021296959493929190611b24565b60405180910390f35b34801561022757600080fd5b50610242600480360361023d919081019061167a565b611231565b60405161024f91906119b3565b60405180910390f35b34801561026457600080fd5b5061027f600480360361027a91908101906115a6565b61126f565b60405161028c91906119ce565b60405180910390f35b60003373ffffffffffffffffffffffffffffffffffffffff166000809054906101000a900473ffffffffffffffffffffffffffffffffffffffff1673ffffffffffffffffffffffffffffffffffffffff16141515610328576040517f08c379a000000000000000000000000000000000000000000000000000000000815260040161031f906119e9565b60405180910390fd5b8173ffffffffffffffffffffffffffffffffffffffff163373ffffffffffffffffffffffffffffffffffffffff1614151515610399576040517f08c379a000000000000000000000000000000000000000000000000000000000815260040161039090611a49565b60405180910390fd5b816000806101000a81548173ffffffffffffffffffffffffffffffffffffffff021916908373ffffffffffffffffffffffffffffffffffffffff1602179055508173ffffffffffffffffffffffffffffffffffffffff163373ffffffffffffffffffffffffffffffffffffffff167fb532073b38c83145e3e5135377a08bf9aab55bc0fd7c1179cd4fb995d2a5159c60405160405180910390a360019050919050565b60025481565b60006060806060600080600460008873ffffffffffffffffffffffffffffffffffffffff1673ffffffffffffffffffffffffffffffffffffffff16815260200190815260200160002060040160149054906101000a900460ff1615156104dd576040517f08c379a00000000000000000000000000000000000000000000000000000000081526004016104d490611a29565b60405180910390fd5b6104e5611434565b600460008973ffffffffffffffffffffffffffffffffffffffff1673ffffffffffffffffffffffffffffffffffffffff16815260200190815260200160002060c0604051908101604052908160008201548152602001600182018054600181600116156101000203166002900480601f0160208091040260200160405190810160405280929190818152602001828054600181600116156101000203166002900480156105d35780601f106105a8576101008083540402835291602001916105d3565b820191906000526020600020905b8154815290600101906020018083116105b657829003601f168201915b50505050508152602001600282018054600181600116156101000203166002900480601f0160208091040260200160405190810160405280929190818152602001828054600181600116156101000203166002900480156106755780601f1061064a57610100808354040283529160200191610675565b820191906000526020600020905b81548152906001019060200180831161065857829003601f168201915b50505050508152602001600382018054600181600116156101000203166002900480601f0160208091040260200160405190810160405280929190818152602001828054600181600116156101000203166002900480156107175780601f106106ec57610100808354040283529160200191610717565b820191906000526020600020905b8154815290600101906020018083116106fa57829003601f168201915b505050505081526020016004820160009054906101000a900473ffffffffffffffffffffffffffffffffffffffff1673ffffffffffffffffffffffffffffffffffffffff1673ffffffffffffffffffffffffffffffffffffffff1681526020016004820160149054906101000a900460ff1615151515815250509050806000015181602001518260400151836060015184608001518560a001518494508393508292509650965096509650965096505091939550919395565b60003373ffffffffffffffffffffffffffffffffffffffff166000809054906101000a900473ffffffffffffffffffffffffffffffffffffffff1673ffffffffffffffffffffffffffffffffffffffff16141515610863576040517f08c379a000000000000000000000000000000000000000000000000000000000815260040161085a906119e9565b60405180910390fd5b6000809054906101000a900473ffffffffffffffffffffffffffffffffffffffff1673ffffffffffffffffffffffffffffffffffffffff168273ffffffffffffffffffffffffffffffffffffffff16141515156108f5576040517f08c379a00000000000000000000000000000000000000000000000000000000081526004016108ec90611aa9565b60405180910390fd5b600160008373ffffffffffffffffffffffffffffffffffffffff1673ffffffffffffffffffffffffffffffffffffffff16815260200190815260200160002060009054906101000a900460ff161515610983576040517f08c379a000000000000000000000000000000000000000000000000000000000815260040161097a90611a69565b60405180910390fd5b6000600160008473ffffffffffffffffffffffffffffffffffffffff1673ffffffffffffffffffffffffffffffffffffffff16815260200190815260200160002060006101000a81548160ff0219169083151502179055508173ffffffffffffffffffffffffffffffffffffffff167fe70121bfa856a48b151660363d04f081b6eeffa1977bb218c890e0e86e37c46260405160405180910390a260019050919050565b6000809054906101000a900473ffffffffffffffffffffffffffffffffffffffff1681565b60011515600160003373ffffffffffffffffffffffffffffffffffffffff1673ffffffffffffffffffffffffffffffffffffffff16815260200190815260200160002060009054906101000a900460ff161515141515610ae1576040517f08c379a0000000000000000000000000000000000000000000000000000000008152600401610ad890611ac9565b60405180910390fd5b600360008273ffffffffffffffffffffffffffffffffffffffff1673ffffffffffffffffffffffffffffffffffffffff16815260200190815260200160002060009054906101000a900460ff16151515610b70576040517f08c379a0000000000000000000000000000000000000000000000000000000008152600401610b6790611ae9565b60405180910390fd5b60058190806001815401808255809150509060018203906000526020600020016000909192909190916101000a81548173ffffffffffffffffffffffffffffffffffffffff021916908373ffffffffffffffffffffffffffffffffffffffff160217905550506001600254016002819055506001600360008373ffffffffffffffffffffffffffffffffffffffff1673ffffffffffffffffffffffffffffffffffffffff16815260200190815260200160002060006101000a81548160ff02191690831515021790555060c06040519081016040528060025481526020018581526020018481526020018381526020018273ffffffffffffffffffffffffffffffffffffffff16815260200160011515815250600460008373ffffffffffffffffffffffffffffffffffffffff1673ffffffffffffffffffffffffffffffffffffffff168152602001908152602001600020600082015181600001556020820151816001019080519060200190610ce8929190611483565b506040820151816002019080519060200190610d05929190611483565b506060820151816003019080519060200190610d22929190611483565b5060808201518160040160006101000a81548173ffffffffffffffffffffffffffffffffffffffff021916908373ffffffffffffffffffffffffffffffffffffffff16021790555060a08201518160040160146101000a81548160ff02191690831515021790555090505050505050565b6000606080606060008060008090505b600580549050811015610e45578760046000600584815481101515610dc457fe5b9060005260206000200160009054906101000a900473ffffffffffffffffffffffffffffffffffffffff1673ffffffffffffffffffffffffffffffffffffffff1673ffffffffffffffffffffffffffffffffffffffff168152602001908152602001600020600001541415610e3857610e45565b8080600101915050610da3565b8760046000600584815481101515610e5957fe5b9060005260206000200160009054906101000a900473ffffffffffffffffffffffffffffffffffffffff1673ffffffffffffffffffffffffffffffffffffffff1673ffffffffffffffffffffffffffffffffffffffff16815260200190815260200160002060000154141515610f04576040517f08c379a0000000000000000000000000000000000000000000000000000000008152600401610efb90611a89565b60405180910390fd5b610f0c611434565b60046000600584815481101515610f1f57fe5b9060005260206000200160009054906101000a900473ffffffffffffffffffffffffffffffffffffffff1673ffffffffffffffffffffffffffffffffffffffff1673ffffffffffffffffffffffffffffffffffffffff16815260200190815260200160002060c0604051908101604052908160008201548152602001600182018054600181600116156101000203166002900480601f0160208091040260200160405190810160405280929190818152602001828054600181600116156101000203166002900480156110335780601f1061100857610100808354040283529160200191611033565b820191906000526020600020905b81548152906001019060200180831161101657829003601f168201915b50505050508152602001600282018054600181600116156101000203166002900480601f0160208091040260200160405190810160405280929190818152602001828054600181600116156101000203166002900480156110d55780601f106110aa576101008083540402835291602001916110d5565b820191906000526020600020905b8154815290600101906020018083116110b857829003601f168201915b50505050508152602001600382018054600181600116156101000203166002900480601f0160208091040260200160405190810160405280929190818152602001828054600181600116156101000203166002900480156111775780601f1061114c57610100808354040283529160200191611177565b820191906000526020600020905b81548152906001019060200180831161115a57829003601f168201915b505050505081526020016004820160009054906101000a900473ffffffffffffffffffffffffffffffffffffffff1673ffffffffffffffffffffffffffffffffffffffff1673ffffffffffffffffffffffffffffffffffffffff1681526020016004820160149054906101000a900460ff1615151515815250509050806000015181602001518260400151836060015184608001518560a00151849450839350829250975097509750975097509750505091939550919395565b60058181548110151561124057fe5b906000526020600020016000915054906101000a900473ffffffffffffffffffffffffffffffffffffffff1681565b60003373ffffffffffffffffffffffffffffffffffffffff166000809054906101000a900473ffffffffffffffffffffffffffffffffffffffff1673ffffffffffffffffffffffffffffffffffffffff16141515611302576040517f08c379a00000000000000000000000000000000000000000000000000000000081526004016112f9906119e9565b60405180910390fd5b600160008373ffffffffffffffffffffffffffffffffffffffff1673ffffffffffffffffffffffffffffffffffffffff16815260200190815260200160002060009054906101000a900460ff16151515611391576040517f08c379a000000000000000000000000000000000000000000000000000000000815260040161138890611a09565b60405180910390fd5b60018060008473ffffffffffffffffffffffffffffffffffffffff1673ffffffffffffffffffffffffffffffffffffffff16815260200190815260200160002060006101000a81548160ff0219169083151502179055508173ffffffffffffffffffffffffffffffffffffffff167fafa166295a35a43bb39382953c2425d7baad8c51d67433474dad5c14da26e20d60405160405180910390a260019050919050565b60c06040519081016040528060008152602001606081526020016060815260200160608152602001600073ffffffffffffffffffffffffffffffffffffffff1681526020016000151581525090565b828054600181600116156101000203166002900490600052602060002090601f016020900481019282601f106114c457805160ff19168380011785556114f2565b828001600101855582156114f2579182015b828111156114f15782518255916020019190600101906114d6565b5b5090506114ff9190611503565b5090565b61152591905b80821115611521576000816000905550600101611509565b5090565b90565b60006115348235611c46565b905092915050565b600082601f830112151561154f57600080fd5b813561156261155d82611bc7565b611b9a565b9150808252602083016020830185838301111561157e57600080fd5b611589838284611c62565b50505092915050565b600061159e8235611c58565b905092915050565b6000602082840312156115b857600080fd5b60006115c684828501611528565b91505092915050565b600080600080608085870312156115e557600080fd5b600085013567ffffffffffffffff8111156115ff57600080fd5b61160b8782880161153c565b945050602085013567ffffffffffffffff81111561162857600080fd5b6116348782880161153c565b935050604085013567ffffffffffffffff81111561165157600080fd5b61165d8782880161153c565b925050606061166e87828801611528565b91505092959194509250565b60006020828403121561168c57600080fd5b600061169a84828501611592565b91505092915050565b6116ac81611bfe565b82525050565b6116bb81611c10565b82525050565b60006116cc82611bf3565b8084526116e0816020860160208601611c71565b6116e981611ca4565b602085010191505092915050565b6000602b82527f4f6e6c79204f776e657220686173207065726d697373696f6e20746f20646f2060208301527f7468617420616374696f6e0000000000000000000000000000000000000000006040830152606082019050919050565b6000601982527f436f6c6c65676520616c726561647920657869737473212121000000000000006020830152604082019050919050565b6000602a82527f50726f666573736f72206973206e6f7420417070726f766564206f7220646f6560208301527f736e2774206578697374000000000000000000000000000000000000000000006040830152606082019050919050565b6000601682527f416c726561647920596f757220746865206f776e6572000000000000000000006020830152604082019050919050565b6000602582527f4164647265737320646f6573206e6f742062656c6f6e6720746f20636f6c6c6560208301527f67652121210000000000000000000000000000000000000000000000000000006040830152606082019050919050565b6000601a82527f50726f666573736f7220494420646f65736e27742065786973740000000000006020830152604082019050919050565b6000602d82527f43616e2774207265766f6b6520636f6c6c656765206163636573732066726f6d60208301527f206f776e657220284d48524429000000000000000000000000000000000000006040830152606082019050919050565b6000602d82527f4f6e6c7920436f6c6c65676520686173207065726d697373696f6e20746f206460208301527f6f207468617420616374696f6e000000000000000000000000000000000000006040830152606082019050919050565b6000601382527f416c726561647920612050726f666573736f72000000000000000000000000006020830152604082019050919050565b6119ad81611c3c565b82525050565b60006020820190506119c860008301846116a3565b92915050565b60006020820190506119e360008301846116b2565b92915050565b60006020820190508181036000830152611a02816116f7565b9050919050565b60006020820190508181036000830152611a2281611754565b9050919050565b60006020820190508181036000830152611a428161178b565b9050919050565b60006020820190508181036000830152611a62816117e8565b9050919050565b60006020820190508181036000830152611a828161181f565b9050919050565b60006020820190508181036000830152611aa28161187c565b9050919050565b60006020820190508181036000830152611ac2816118b3565b9050919050565b60006020820190508181036000830152611ae281611910565b9050919050565b60006020820190508181036000830152611b028161196d565b9050919050565b6000602082019050611b1e60008301846119a4565b92915050565b600060c082019050611b3960008301896119a4565b8181036020830152611b4b81886116c1565b90508181036040830152611b5f81876116c1565b90508181036060830152611b7381866116c1565b9050611b8260808301856116a3565b611b8f60a08301846116b2565b979650505050505050565b6000604051905081810181811067ffffffffffffffff82111715611bbd57600080fd5b8060405250919050565b600067ffffffffffffffff821115611bde57600080fd5b601f19601f8301169050602081019050919050565b600081519050919050565b6000611c0982611c1c565b9050919050565b60008115159050919050565b600073ffffffffffffffffffffffffffffffffffffffff82169050919050565b6000819050919050565b6000611c5182611c1c565b9050919050565b6000819050919050565b82818337600083830152505050565b60005b83811015611c8f578082015181840152602081019050611c74565b83811115611c9e576000848401525b50505050565b6000601f19601f830116905091905056fea265627a7a723058203a01a67e8b59cb28d628e4b1a91725e352773d72923c86c719cc88ddc733a8296c6578706572696d656e74616cf50037",
  "source": "/**\n *Submitted for verification at Etherscan.io on 2020-10-02\n*/\n\npragma solidity >=0.4.22 <0.7.0;\npragma experimental ABIEncoderV2;\n\ncontract ownable {\n    \n    address public owner;\n    mapping(address=>bool) isCollege;\n    event OwnerChanged(address indexed _from,address indexed _to);\n    event CollegeAdded(address indexed College_Address);\n    event CollegeRemoved(address indexed College_Address);\n    constructor() public{\n        owner=msg.sender;\n        isCollege[msg.sender]=true;\n    }\n    \n    modifier onlyOwner(){\n        require(owner == msg.sender,\"Only Owner has permission to do that action\");\n        _;\n    }\n    modifier onlyCollege(){\n        require(isCollege[msg.sender] == true,\"Only College has permission to do that action\");\n        _;\n    }\n    \n    function setOwner(address _owner) public onlyOwner returns(bool success){\n        require(msg.sender!=_owner,\"Already Your the owner\");\n        owner = _owner;\n        emit OwnerChanged(msg.sender, _owner);\n        return true;\n    }\n    function addCollege(address _address) public onlyOwner returns(bool success){\n        require(!isCollege[_address],\"College already exists!!!\");\n        isCollege[_address]=true;\n        emit CollegeAdded(_address);\n        return true;\n    }\n    function removeCollege(address _address) public onlyOwner returns(bool success){\n        require(_address!=owner,\"Can't revoke college access from owner (MHRD)\");\n        require(isCollege[_address],\"Address does not belong to college!!!\");\n        isCollege[_address]=false;\n        emit CollegeRemoved(_address);\n        return true;\n    }\n}\n\n\n\ncontract Professor is ownable {\n    uint256 public index;\n    mapping(address=>bool) isProfessor;\n    struct Professor {\n        uint256 id;\n        string hname;\n        string haddress;\n        string hcontact;\n        address addr;\n        bool isApproved;\n    }\n    mapping(address=>Professor) Professors;\n    address[] public ProfessorList;\n    \n    modifier onlyProfessor(){\n        require(isProfessor[msg.sender],\"Only Professors can add Students\");\n        _;\n    }\n    \n    function addProfessor(string memory _hname,string memory _haddress,string memory _hcontact,address _addr) public onlyCollege{\n        require(!isProfessor[_addr],\"Already a Professor\");\n        ProfessorList.push(_addr);\n        index = index + 1;\n        isProfessor[_addr]=true;\n        Professors[_addr]=Professor(index,_hname,_haddress,_hcontact,_addr,true);\n    }\n    \n    function getProfessorById(uint256 _id) public view returns(uint256 id,string memory hname,string memory haddress , string memory hcontact ,address addr , bool isApproved)  {\n        uint256 i=0;\n        for(;i<ProfessorList.length;i++){\n        if(Professors[ProfessorList[i]].id==_id){\n            break;\n        }\n    }    \n        require(Professors[ProfessorList[i]].id==_id,\"Professor ID doesn't exist\");\n        Professor memory tmp = Professors[ProfessorList[i]];\n        return (tmp.id,tmp.hname,tmp.haddress,tmp.hcontact,tmp.addr,tmp.isApproved);\n    }\n    \n    function getProfessorByAddress(address _address) public view returns(uint256 id,string memory hname,string memory haddress , string memory hcontact ,address addr , bool isApproved) {\n        require(Professors[_address].isApproved,\"Professor is not Approved or doesn't exist\");\n        Professor memory tmp = Professors[_address];\n        return (tmp.id,tmp.hname,tmp.haddress,tmp.hcontact,tmp.addr,tmp.isApproved);\n    }    \n    \n}\n\ncontract Student is Professor{\n    \n    uint256 public pindex=0;\n    \n    struct Records {\n    string hname;\n    string reason;\n    string admittedOn;\n    string dischargedOn;\n    string ipfs;\n    }\n    \n    struct Student{\n        uint256 id;\n        string name;\n        string phone;\n        string gender;\n        string dob;\n        string bloodgroup;\n        string allergies;\n        Records[] records;\n        address addr;\n    }\n\n    address[] private StudentList;\n    mapping(address=>mapping(address=>bool)) isAuth;\n    mapping(address=>Student) Students;\n    mapping(address=>bool) isStudent;\n\n    \n    function addRecord(address _addr,string memory _hname,string memory _reason,string memory _admittedOn,string memory _dischargedOn,string memory _ipfs) public{\n        require(isStudent[_addr],\"Student Not registered\");\n        require(isAuth[_addr][msg.sender],\"No permission to add Students\");\n        Students[_addr].records.push(Records(_hname,_reason,_admittedOn,_dischargedOn,_ipfs));\n        \n    }\n    \n    function addStudent(string memory _name,string memory _phone,string memory _gender,string memory _dob,string memory _bloodgroup,string memory _allergies) public {\n        require(!isStudent[msg.sender],\"Student account already exists\");\n        StudentList.push(msg.sender);\n        pindex = pindex + 1;\n        isStudent[msg.sender]=true;\n        isAuth[msg.sender][msg.sender]=true;\n        Students[msg.sender].id=pindex;\n        Students[msg.sender].name=_name;\n        Students[msg.sender].phone=_phone;\n        Students[msg.sender].gender=_gender;\n        Students[msg.sender].dob=_dob;\n        Students[msg.sender].bloodgroup=_bloodgroup;\n        Students[msg.sender].allergies=_allergies;\n        Students[msg.sender].addr=msg.sender;\n    }\n    \n    function getStudentDetails(address _addr) public view returns(string memory _name,string memory _phone,string memory _gender,string memory _dob,string memory _bloodgroup,string memory _allergies){\n        require(isAuth[_addr][msg.sender],\"No permission to get Records\");\n        require(isStudent[_addr],\"No Students found at the given address\");\n        Student memory tmp = Students[_addr];\n        return (tmp.name,tmp.phone,tmp.gender,tmp.dob,tmp.bloodgroup,tmp.allergies);\n    }\n    \n    function getStudentRecords(address _addr) public view returns(string[] memory _hname,string[] memory _reason,string[] memory _admittedOn,string[] memory _dischargedOn,string[] memory ipfs){\n        require(isAuth[_addr][msg.sender],\"No permission to get Records\");\n        require(isStudent[_addr],\"student not signed in to our network\");\n        require(Students[_addr].records.length>0,\"student record doesn't exist\");\n        string[] memory Hname = new string[](Students[_addr].records.length);\n        string[] memory Reason = new string[](Students[_addr].records.length);\n        string[] memory AdmOn = new string[](Students[_addr].records.length);\n        string[] memory DisOn = new string[](Students[_addr].records.length);\n        string[] memory IPFS = new string[](Students[_addr].records.length);\n        for(uint256 i=0;i<Students[_addr].records.length;i++){\n            Hname[i]=Students[_addr].records[i].hname;\n            Reason[i]=Students[_addr].records[i].reason;\n            AdmOn[i]=Students[_addr].records[i].admittedOn;\n            DisOn[i]=Students[_addr].records[i].dischargedOn;\n            IPFS[i]=Students[_addr].records[i].ipfs;\n        }\n        return(Hname,Reason,AdmOn,DisOn,IPFS);\n    }\n    \n    function addAuth(address _addr) public returns(bool success) {\n        require(!isAuth[msg.sender][_addr],\"Already Authorised\");\n        require(msg.sender!=_addr,\"Cant add yourself\");\n        isAuth[msg.sender][_addr] = true;\n        return true;\n    }\n\n    function revokeAuth(address _addr) public returns(bool success) {\n        require(msg.sender!=_addr,\"Cant remove yourself\");\n        require(isAuth[msg.sender][_addr],\"Already Not Authorised\");\n        isAuth[msg.sender][_addr] = false;\n        return true;\n    }\n    \n    function addAuthFromTo(address _from,address _to) public returns(bool success) {\n        require(!isAuth[_from][_to],\"Already  Auth!!!\");\n        require(_from!=_to,\"can't add same person\");\n        require(isAuth[_from][msg.sender],\"You don't have permission to access\");\n        require(isStudent[_from],\"User Not Registered yet\");\n        isAuth[_from][_to] = true;\n        return true;\n    }\n    \n    function removeAuthFromTo(address _from,address _to) public returns(bool success) {\n        require(isAuth[_from][_to],\"Already No Auth!!!\");\n        require(_from!=_to,\"can't remove same person\");\n        require(isAuth[_from][msg.sender],\"You don't have permission to access\");\n        require(isStudent[_from],\"User Not Registered yet\");\n        isAuth[_from][_to] = false;\n        return true;\n    }\n    \n\n}",
  "sourcePath": "C:/Users/HP/Documents/IT465/Project_file_upload4/contracts/SmartContract.sol",
  "compiler": {
    "name": "solc",
    "version": "0.5.0+commit.1d4f565a.Emscripten.clang"
  },
  "schemaVersion": "3.0.1",
  "updatedAt": "2022-11-06T13:03:08.143Z",
  "devdoc": {
    "methods": {}
  },
  "userdoc": {
    "methods": {}
  }
}