{
  "contractName": "Student",
  "abi": [
    {
      "constant": false,
      "inputs": [
        {
          "name": "_owner",
          "type": "address"
        }
      ],
      "name": "setOwner",
      "outputs": [
        {
          "name": "success",
          "type": "bool"
        }
      ],
      "payable": false,
      "stateMutability": "nonpayable",
      "type": "function",
      "signature": "0x13af4035"
    },
    {
      "constant": true,
      "inputs": [],
      "name": "index",
      "outputs": [
        {
          "name": "",
          "type": "uint256"
        }
      ],
      "payable": false,
      "stateMutability": "view",
      "type": "function",
      "signature": "0x2986c0e5"
    },
    {
      "constant": true,
      "inputs": [
        {
          "name": "_address",
          "type": "address"
        }
      ],
      "name": "getProfessorByAddress",
      "outputs": [
        {
          "name": "id",
          "type": "uint256"
        },
        {
          "name": "hname",
          "type": "string"
        },
        {
          "name": "haddress",
          "type": "string"
        },
        {
          "name": "hcontact",
          "type": "string"
        },
        {
          "name": "addr",
          "type": "address"
        },
        {
          "name": "isApproved",
          "type": "bool"
        }
      ],
      "payable": false,
      "stateMutability": "view",
      "type": "function",
      "signature": "0x3d9f99f9"
    },
    {
      "constant": true,
      "inputs": [],
      "name": "pindex",
      "outputs": [
        {
          "name": "",
          "type": "uint256"
        }
      ],
      "payable": false,
      "stateMutability": "view",
      "type": "function",
      "signature": "0x5658e43b"
    },
    {
      "constant": false,
      "inputs": [
        {
          "name": "_address",
          "type": "address"
        }
      ],
      "name": "removeCollege",
      "outputs": [
        {
          "name": "success",
          "type": "bool"
        }
      ],
      "payable": false,
      "stateMutability": "nonpayable",
      "type": "function",
      "signature": "0x8a58a943"
    },
    {
      "constant": true,
      "inputs": [],
      "name": "owner",
      "outputs": [
        {
          "name": "",
          "type": "address"
        }
      ],
      "payable": false,
      "stateMutability": "view",
      "type": "function",
      "signature": "0x8da5cb5b"
    },
    {
      "constant": false,
      "inputs": [
        {
          "name": "_hname",
          "type": "string"
        },
        {
          "name": "_haddress",
          "type": "string"
        },
        {
          "name": "_hcontact",
          "type": "string"
        },
        {
          "name": "_addr",
          "type": "address"
        }
      ],
      "name": "addProfessor",
      "outputs": [],
      "payable": false,
      "stateMutability": "nonpayable",
      "type": "function",
      "signature": "0xac756842"
    },
    {
      "constant": true,
      "inputs": [
        {
          "name": "_id",
          "type": "uint256"
        }
      ],
      "name": "getProfessorById",
      "outputs": [
        {
          "name": "id",
          "type": "uint256"
        },
        {
          "name": "hname",
          "type": "string"
        },
        {
          "name": "haddress",
          "type": "string"
        },
        {
          "name": "hcontact",
          "type": "string"
        },
        {
          "name": "addr",
          "type": "address"
        },
        {
          "name": "isApproved",
          "type": "bool"
        }
      ],
      "payable": false,
      "stateMutability": "view",
      "type": "function",
      "signature": "0xbaf03bb2"
    },
    {
      "constant": true,
      "inputs": [
        {
          "name": "",
          "type": "uint256"
        }
      ],
      "name": "ProfessorList",
      "outputs": [
        {
          "name": "",
          "type": "address"
        }
      ],
      "payable": false,
      "stateMutability": "view",
      "type": "function",
      "signature": "0xea43fb20"
    },
    {
      "constant": false,
      "inputs": [
        {
          "name": "_address",
          "type": "address"
        }
      ],
      "name": "addCollege",
      "outputs": [
        {
          "name": "success",
          "type": "bool"
        }
      ],
      "payable": false,
      "stateMutability": "nonpayable",
      "type": "function",
      "signature": "0xfd368761"
    },
    {
      "anonymous": false,
      "inputs": [
        {
          "indexed": true,
          "name": "_from",
          "type": "address"
        },
        {
          "indexed": true,
          "name": "_to",
          "type": "address"
        }
      ],
      "name": "OwnerChanged",
      "type": "event",
      "signature": "0xb532073b38c83145e3e5135377a08bf9aab55bc0fd7c1179cd4fb995d2a5159c"
    },
    {
      "anonymous": false,
      "inputs": [
        {
          "indexed": true,
          "name": "College_Address",
          "type": "address"
        }
      ],
      "name": "CollegeAdded",
      "type": "event",
      "signature": "0xafa166295a35a43bb39382953c2425d7baad8c51d67433474dad5c14da26e20d"
    },
    {
      "anonymous": false,
      "inputs": [
        {
          "indexed": true,
          "name": "College_Address",
          "type": "address"
        }
      ],
      "name": "CollegeRemoved",
      "type": "event",
      "signature": "0xe70121bfa856a48b151660363d04f081b6eeffa1977bb218c890e0e86e37c462"
    },
    {
      "constant": false,
      "inputs": [
        {
          "name": "_addr",
          "type": "address"
        },
        {
          "name": "_hname",
          "type": "string"
        },
        {
          "name": "_reason",
          "type": "string"
        },
        {
          "name": "_admittedOn",
          "type": "string"
        },
        {
          "name": "_dischargedOn",
          "type": "string"
        },
        {
          "name": "_ipfs",
          "type": "string"
        }
      ],
      "name": "addRecord",
      "outputs": [],
      "payable": false,
      "stateMutability": "nonpayable",
      "type": "function",
      "signature": "0xef264a21"
    },
    {
      "constant": false,
      "inputs": [
        {
          "name": "_name",
          "type": "string"
        },
        {
          "name": "_phone",
          "type": "string"
        },
        {
          "name": "_gender",
          "type": "string"
        },
        {
          "name": "_dob",
          "type": "string"
        },
        {
          "name": "_bloodgroup",
          "type": "string"
        },
        {
          "name": "_allergies",
          "type": "string"
        }
      ],
      "name": "addStudent",
      "outputs": [],
      "payable": false,
      "stateMutability": "nonpayable",
      "type": "function",
      "signature": "0xa11d211b"
    },
    {
      "constant": true,
      "inputs": [
        {
          "name": "_addr",
          "type": "address"
        }
      ],
      "name": "getStudentDetails",
      "outputs": [
        {
          "name": "_name",
          "type": "string"
        },
        {
          "name": "_phone",
          "type": "string"
        },
        {
          "name": "_gender",
          "type": "string"
        },
        {
          "name": "_dob",
          "type": "string"
        },
        {
          "name": "_bloodgroup",
          "type": "string"
        },
        {
          "name": "_allergies",
          "type": "string"
        }
      ],
      "payable": false,
      "stateMutability": "view",
      "type": "function",
      "signature": "0xd0b371bd"
    },
    {
      "constant": true,
      "inputs": [
        {
          "name": "_addr",
          "type": "address"
        }
      ],
      "name": "getStudentRecords",
      "outputs": [
        {
          "name": "_hname",
          "type": "string[]"
        },
        {
          "name": "_reason",
          "type": "string[]"
        },
        {
          "name": "_admittedOn",
          "type": "string[]"
        },
        {
          "name": "_dischargedOn",
          "type": "string[]"
        },
        {
          "name": "ipfs",
          "type": "string[]"
        }
      ],
      "payable": false,
      "stateMutability": "view",
      "type": "function",
      "signature": "0x50841ab7"
    },
    {
      "constant": false,
      "inputs": [
        {
          "name": "_addr",
          "type": "address"
        }
      ],
      "name": "addAuth",
      "outputs": [
        {
          "name": "success",
          "type": "bool"
        }
      ],
      "payable": false,
      "stateMutability": "nonpayable",
      "type": "function",
      "signature": "0x5422224e"
    },
    {
      "constant": false,
      "inputs": [
        {
          "name": "_addr",
          "type": "address"
        }
      ],
      "name": "revokeAuth",
      "outputs": [
        {
          "name": "success",
          "type": "bool"
        }
      ],
      "payable": false,
      "stateMutability": "nonpayable",
      "type": "function",
      "signature": "0xf8171dfa"
    },
    {
      "constant": false,
      "inputs": [
        {
          "name": "_from",
          "type": "address"
        },
        {
          "name": "_to",
          "type": "address"
        }
      ],
      "name": "addAuthFromTo",
      "outputs": [
        {
          "name": "success",
          "type": "bool"
        }
      ],
      "payable": false,
      "stateMutability": "nonpayable",
      "type": "function",
      "signature": "0xe0d23e11"
    },
    {
      "constant": false,
      "inputs": [
        {
          "name": "_from",
          "type": "address"
        },
        {
          "name": "_to",
          "type": "address"
        }
      ],
      "name": "removeAuthFromTo",
      "outputs": [
        {
          "name": "success",
          "type": "bool"
        }
      ],
      "payable": false,
      "stateMutability": "nonpayable",
      "type": "function",
      "signature": "0x0c3c45a0"
    }
  ],
  "bytecode": "0x60806040526000600655336000806101000a81548173ffffffffffffffffffffffffffffffffffffffff021916908373ffffffffffffffffffffffffffffffffffffffff16021790555060018060003373ffffffffffffffffffffffffffffffffffffffff1673ffffffffffffffffffffffffffffffffffffffff16815260200190815260200160002060006101000a81548160ff021916908315150217905550615004806100af6000396000f3fe6080604052600436106100fc576000357c0100000000000000000000000000000000000000000000000000000000900463ffffffff1680630c3c45a01461010157806313af40351461013e5780632986c0e51461017b5780633d9f99f9146101a657806350841ab7146101e85780635422224e146102295780635658e43b146102665780638a58a943146102915780638da5cb5b146102ce578063a11d211b146102f9578063ac75684214610322578063baf03bb21461034b578063d0b371bd1461038d578063e0d23e11146103cf578063ea43fb201461040c578063ef264a2114610449578063f8171dfa14610472578063fd368761146104af575b600080fd5b34801561010d57600080fd5b5061012860048036036101239190810190613e80565b6104ec565b6040516101359190614a08565b60405180910390f35b34801561014a57600080fd5b5061016560048036036101609190810190613e57565b610822565b6040516101729190614a08565b60405180910390f35b34801561018757600080fd5b506101906109c9565b60405161019d9190614dee565b60405180910390f35b3480156101b257600080fd5b506101cd60048036036101c89190810190613e57565b6109cf565b6040516101df96959493929190614e09565b60405180910390f35b3480156101f457600080fd5b5061020f600480360361020a9190810190613e57565b610d5d565b604051610220959493929190614992565b60405180910390f35b34801561023557600080fd5b50610250600480360361024b9190810190613e57565b6117a0565b60405161025d9190614a08565b60405180910390f35b34801561027257600080fd5b5061027b61197d565b6040516102889190614dee565b60405180910390f35b34801561029d57600080fd5b506102b860048036036102b39190810190613e57565b611983565b6040516102c59190614a08565b60405180910390f35b3480156102da57600080fd5b506102e3611bda565b6040516102f09190614977565b60405180910390f35b34801561030557600080fd5b50610320600480360361031b9190810190614068565b611bff565b005b34801561032e57600080fd5b5061034960048036036103449190810190613fbd565b6120c9565b005b34801561035757600080fd5b50610372600480360361036d9190810190614181565b612410565b60405161038496959493929190614e09565b60405180910390f35b34801561039957600080fd5b506103b460048036036103af9190810190613e57565b6128ae565b6040516103c696959493929190614a23565b60405180910390f35b3480156103db57600080fd5b506103f660048036036103f19190810190613e80565b613262565b6040516104039190614a08565b60405180910390f35b34801561041857600080fd5b50610433600480360361042e9190810190614181565b613599565b6040516104409190614977565b60405180910390f35b34801561045557600080fd5b50610470600480360361046b9190810190613ebc565b6135d7565b005b34801561047e57600080fd5b5061049960048036036104949190810190613e57565b613861565b6040516104a69190614a08565b60405180910390f35b3480156104bb57600080fd5b506104d660048036036104d19190810190613e57565b613a3d565b6040516104e39190614a08565b60405180910390f35b6000600860008473ffffffffffffffffffffffffffffffffffffffff1673ffffffffffffffffffffffffffffffffffffffff16815260200190815260200160002060008373ffffffffffffffffffffffffffffffffffffffff1673ffffffffffffffffffffffffffffffffffffffff16815260200190815260200160002060009054906101000a900460ff1615156105b9576040517f08c379a00000000000000000000000000000000000000000000000000000000081526004016105b090614c4e565b60405180910390fd5b8173ffffffffffffffffffffffffffffffffffffffff168373ffffffffffffffffffffffffffffffffffffffff161415151561062a576040517f08c379a000000000000000000000000000000000000000000000000000000000815260040161062190614d6e565b60405180910390fd5b600860008473ffffffffffffffffffffffffffffffffffffffff1673ffffffffffffffffffffffffffffffffffffffff16815260200190815260200160002060003373ffffffffffffffffffffffffffffffffffffffff1673ffffffffffffffffffffffffffffffffffffffff16815260200190815260200160002060009054906101000a900460ff1615156106f5576040517f08c379a00000000000000000000000000000000000000000000000000000000081526004016106ec90614c0e565b60405180910390fd5b600a60008473ffffffffffffffffffffffffffffffffffffffff1673ffffffffffffffffffffffffffffffffffffffff16815260200190815260200160002060009054906101000a900460ff161515610783576040517f08c379a000000000000000000000000000000000000000000000000000000000815260040161077a90614c2e565b60405180910390fd5b6000600860008573ffffffffffffffffffffffffffffffffffffffff1673ffffffffffffffffffffffffffffffffffffffff16815260200190815260200160002060008473ffffffffffffffffffffffffffffffffffffffff1673ffffffffffffffffffffffffffffffffffffffff16815260200190815260200160002060006101000a81548160ff0219169083151502179055506001905092915050565b60003373ffffffffffffffffffffffffffffffffffffffff166000809054906101000a900473ffffffffffffffffffffffffffffffffffffffff1673ffffffffffffffffffffffffffffffffffffffff161415156108b5576040517f08c379a00000000000000000000000000000000000000000000000000000000081526004016108ac90614aee565b60405180910390fd5b8173ffffffffffffffffffffffffffffffffffffffff163373ffffffffffffffffffffffffffffffffffffffff1614151515610926576040517f08c379a000000000000000000000000000000000000000000000000000000000815260040161091d90614b8e565b60405180910390fd5b816000806101000a81548173ffffffffffffffffffffffffffffffffffffffff021916908373ffffffffffffffffffffffffffffffffffffffff1602179055508173ffffffffffffffffffffffffffffffffffffffff163373ffffffffffffffffffffffffffffffffffffffff167fb532073b38c83145e3e5135377a08bf9aab55bc0fd7c1179cd4fb995d2a5159c60405160405180910390a360019050919050565b60025481565b60006060806060600080600460008873ffffffffffffffffffffffffffffffffffffffff1673ffffffffffffffffffffffffffffffffffffffff16815260200190815260200160002060040160149054906101000a900460ff161515610a6a576040517f08c379a0000000000000000000000000000000000000000000000000000000008152600401610a6190614b4e565b60405180910390fd5b610a72613c02565b600460008973ffffffffffffffffffffffffffffffffffffffff1673ffffffffffffffffffffffffffffffffffffffff16815260200190815260200160002060c0604051908101604052908160008201548152602001600182018054600181600116156101000203166002900480601f016020809104026020016040519081016040528092919081815260200182805460018160011615610100020316600290048015610b605780601f10610b3557610100808354040283529160200191610b60565b820191906000526020600020905b815481529060010190602001808311610b4357829003601f168201915b50505050508152602001600282018054600181600116156101000203166002900480601f016020809104026020016040519081016040528092919081815260200182805460018160011615610100020316600290048015610c025780601f10610bd757610100808354040283529160200191610c02565b820191906000526020600020905b815481529060010190602001808311610be557829003601f168201915b50505050508152602001600382018054600181600116156101000203166002900480601f016020809104026020016040519081016040528092919081815260200182805460018160011615610100020316600290048015610ca45780601f10610c7957610100808354040283529160200191610ca4565b820191906000526020600020905b815481529060010190602001808311610c8757829003601f168201915b505050505081526020016004820160009054906101000a900473ffffffffffffffffffffffffffffffffffffffff1673ffffffffffffffffffffffffffffffffffffffff1673ffffffffffffffffffffffffffffffffffffffff1681526020016004820160149054906101000a900460ff1615151515815250509050806000015181602001518260400151836060015184608001518560a001518494508393508292509650965096509650965096505091939550919395565b6060806060806060600860008773ffffffffffffffffffffffffffffffffffffffff1673ffffffffffffffffffffffffffffffffffffffff16815260200190815260200160002060003373ffffffffffffffffffffffffffffffffffffffff1673ffffffffffffffffffffffffffffffffffffffff16815260200190815260200160002060009054906101000a900460ff161515610e30576040517f08c379a0000000000000000000000000000000000000000000000000000000008152600401610e2790614bce565b60405180910390fd5b600a60008773ffffffffffffffffffffffffffffffffffffffff1673ffffffffffffffffffffffffffffffffffffffff16815260200190815260200160002060009054906101000a900460ff161515610ebe576040517f08c379a0000000000000000000000000000000000000000000000000000000008152600401610eb590614cae565b60405180910390fd5b6000600960008873ffffffffffffffffffffffffffffffffffffffff1673ffffffffffffffffffffffffffffffffffffffff16815260200190815260200160002060070180549050111515610f48576040517f08c379a0000000000000000000000000000000000000000000000000000000008152600401610f3f90614b2e565b60405180910390fd5b6060600960008873ffffffffffffffffffffffffffffffffffffffff1673ffffffffffffffffffffffffffffffffffffffff16815260200190815260200160002060070180549050604051908082528060200260200182016040528015610fc357816020015b6060815260200190600190039081610fae5790505b5090506060600960008973ffffffffffffffffffffffffffffffffffffffff1673ffffffffffffffffffffffffffffffffffffffff1681526020019081526020016000206007018054905060405190808252806020026020018201604052801561104157816020015b606081526020019060019003908161102c5790505b5090506060600960008a73ffffffffffffffffffffffffffffffffffffffff1673ffffffffffffffffffffffffffffffffffffffff168152602001908152602001600020600701805490506040519080825280602002602001820160405280156110bf57816020015b60608152602001906001900390816110aa5790505b5090506060600960008b73ffffffffffffffffffffffffffffffffffffffff1673ffffffffffffffffffffffffffffffffffffffff1681526020019081526020016000206007018054905060405190808252806020026020018201604052801561113d57816020015b60608152602001906001900390816111285790505b5090506060600960008c73ffffffffffffffffffffffffffffffffffffffff1673ffffffffffffffffffffffffffffffffffffffff168152602001908152602001600020600701805490506040519080825280602002602001820160405280156111bb57816020015b60608152602001906001900390816111a65790505b50905060008090505b600960008d73ffffffffffffffffffffffffffffffffffffffff1673ffffffffffffffffffffffffffffffffffffffff1681526020019081526020016000206007018054905081101561178257600960008d73ffffffffffffffffffffffffffffffffffffffff1673ffffffffffffffffffffffffffffffffffffffff1681526020019081526020016000206007018181548110151561126057fe5b90600052602060002090600502016000018054600181600116156101000203166002900480601f0160208091040260200160405190810160405280929190818152602001828054600181600116156101000203166002900480156113055780601f106112da57610100808354040283529160200191611305565b820191906000526020600020905b8154815290600101906020018083116112e857829003601f168201915b5050505050868281518110151561131857fe5b90602001906020020181905250600960008d73ffffffffffffffffffffffffffffffffffffffff1673ffffffffffffffffffffffffffffffffffffffff1681526020019081526020016000206007018181548110151561137457fe5b90600052602060002090600502016001018054600181600116156101000203166002900480601f0160208091040260200160405190810160405280929190818152602001828054600181600116156101000203166002900480156114195780601f106113ee57610100808354040283529160200191611419565b820191906000526020600020905b8154815290600101906020018083116113fc57829003601f168201915b5050505050858281518110151561142c57fe5b90602001906020020181905250600960008d73ffffffffffffffffffffffffffffffffffffffff1673ffffffffffffffffffffffffffffffffffffffff1681526020019081526020016000206007018181548110151561148857fe5b90600052602060002090600502016002018054600181600116156101000203166002900480601f01602080910402602001604051908101604052809291908181526020018280546001816001161561010002031660029004801561152d5780601f106115025761010080835404028352916020019161152d565b820191906000526020600020905b81548152906001019060200180831161151057829003601f168201915b5050505050848281518110151561154057fe5b90602001906020020181905250600960008d73ffffffffffffffffffffffffffffffffffffffff1673ffffffffffffffffffffffffffffffffffffffff1681526020019081526020016000206007018181548110151561159c57fe5b90600052602060002090600502016003018054600181600116156101000203166002900480601f0160208091040260200160405190810160405280929190818152602001828054600181600116156101000203166002900480156116415780601f1061161657610100808354040283529160200191611641565b820191906000526020600020905b81548152906001019060200180831161162457829003601f168201915b5050505050838281518110151561165457fe5b90602001906020020181905250600960008d73ffffffffffffffffffffffffffffffffffffffff1673ffffffffffffffffffffffffffffffffffffffff168152602001908152602001600020600701818154811015156116b057fe5b90600052602060002090600502016004018054600181600116156101000203166002900480601f0160208091040260200160405190810160405280929190818152602001828054600181600116156101000203166002900480156117555780601f1061172a57610100808354040283529160200191611755565b820191906000526020600020905b81548152906001019060200180831161173857829003601f168201915b5050505050828281518110151561176857fe5b9060200190602002018190525080806001019150506111c4565b50848484848499509950995099509950505050505091939590929450565b6000600860003373ffffffffffffffffffffffffffffffffffffffff1673ffffffffffffffffffffffffffffffffffffffff16815260200190815260200160002060008373ffffffffffffffffffffffffffffffffffffffff1673ffffffffffffffffffffffffffffffffffffffff16815260200190815260200160002060009054906101000a900460ff1615151561186e576040517f08c379a000000000000000000000000000000000000000000000000000000000815260040161186590614cee565b60405180910390fd5b8173ffffffffffffffffffffffffffffffffffffffff163373ffffffffffffffffffffffffffffffffffffffff16141515156118df576040517f08c379a00000000000000000000000000000000000000000000000000000000081526004016118d690614ace565b60405180910390fd5b6001600860003373ffffffffffffffffffffffffffffffffffffffff1673ffffffffffffffffffffffffffffffffffffffff16815260200190815260200160002060008473ffffffffffffffffffffffffffffffffffffffff1673ffffffffffffffffffffffffffffffffffffffff16815260200190815260200160002060006101000a81548160ff02191690831515021790555060019050919050565b60065481565b60003373ffffffffffffffffffffffffffffffffffffffff166000809054906101000a900473ffffffffffffffffffffffffffffffffffffffff1673ffffffffffffffffffffffffffffffffffffffff16141515611a16576040517f08c379a0000000000000000000000000000000000000000000000000000000008152600401611a0d90614aee565b60405180910390fd5b6000809054906101000a900473ffffffffffffffffffffffffffffffffffffffff1673ffffffffffffffffffffffffffffffffffffffff168273ffffffffffffffffffffffffffffffffffffffff1614151515611aa8576040517f08c379a0000000000000000000000000000000000000000000000000000000008152600401611a9f90614c8e565b60405180910390fd5b600160008373ffffffffffffffffffffffffffffffffffffffff1673ffffffffffffffffffffffffffffffffffffffff16815260200190815260200160002060009054906101000a900460ff161515611b36576040517f08c379a0000000000000000000000000000000000000000000000000000000008152600401611b2d90614bee565b60405180910390fd5b6000600160008473ffffffffffffffffffffffffffffffffffffffff1673ffffffffffffffffffffffffffffffffffffffff16815260200190815260200160002060006101000a81548160ff0219169083151502179055508173ffffffffffffffffffffffffffffffffffffffff167fe70121bfa856a48b151660363d04f081b6eeffa1977bb218c890e0e86e37c46260405160405180910390a260019050919050565b6000809054906101000a900473ffffffffffffffffffffffffffffffffffffffff1681565b600a60003373ffffffffffffffffffffffffffffffffffffffff1673ffffffffffffffffffffffffffffffffffffffff16815260200190815260200160002060009054906101000a900460ff16151515611c8e576040517f08c379a0000000000000000000000000000000000000000000000000000000008152600401611c8590614aae565b60405180910390fd5b60073390806001815401808255809150509060018203906000526020600020016000909192909190916101000a81548173ffffffffffffffffffffffffffffffffffffffff021916908373ffffffffffffffffffffffffffffffffffffffff160217905550506001600654016006819055506001600a60003373ffffffffffffffffffffffffffffffffffffffff1673ffffffffffffffffffffffffffffffffffffffff16815260200190815260200160002060006101000a81548160ff0219169083151502179055506001600860003373ffffffffffffffffffffffffffffffffffffffff1673ffffffffffffffffffffffffffffffffffffffff16815260200190815260200160002060003373ffffffffffffffffffffffffffffffffffffffff1673ffffffffffffffffffffffffffffffffffffffff16815260200190815260200160002060006101000a81548160ff021916908315150217905550600654600960003373ffffffffffffffffffffffffffffffffffffffff1673ffffffffffffffffffffffffffffffffffffffff1681526020019081526020016000206000018190555085600960003373ffffffffffffffffffffffffffffffffffffffff1673ffffffffffffffffffffffffffffffffffffffff1681526020019081526020016000206001019080519060200190611e8c929190613c51565b5084600960003373ffffffffffffffffffffffffffffffffffffffff1673ffffffffffffffffffffffffffffffffffffffff1681526020019081526020016000206002019080519060200190611ee3929190613c51565b5083600960003373ffffffffffffffffffffffffffffffffffffffff1673ffffffffffffffffffffffffffffffffffffffff1681526020019081526020016000206003019080519060200190611f3a929190613c51565b5082600960003373ffffffffffffffffffffffffffffffffffffffff1673ffffffffffffffffffffffffffffffffffffffff1681526020019081526020016000206004019080519060200190611f91929190613c51565b5081600960003373ffffffffffffffffffffffffffffffffffffffff1673ffffffffffffffffffffffffffffffffffffffff1681526020019081526020016000206005019080519060200190611fe8929190613c51565b5080600960003373ffffffffffffffffffffffffffffffffffffffff1673ffffffffffffffffffffffffffffffffffffffff168152602001908152602001600020600601908051906020019061203f929190613c51565b5033600960003373ffffffffffffffffffffffffffffffffffffffff1673ffffffffffffffffffffffffffffffffffffffff16815260200190815260200160002060080160006101000a81548173ffffffffffffffffffffffffffffffffffffffff021916908373ffffffffffffffffffffffffffffffffffffffff160217905550505050505050565b60011515600160003373ffffffffffffffffffffffffffffffffffffffff1673ffffffffffffffffffffffffffffffffffffffff16815260200190815260200160002060009054906101000a900460ff16151514151561215e576040517f08c379a000000000000000000000000000000000000000000000000000000000815260040161215590614d0e565b60405180910390fd5b600360008273ffffffffffffffffffffffffffffffffffffffff1673ffffffffffffffffffffffffffffffffffffffff16815260200190815260200160002060009054906101000a900460ff161515156121ed576040517f08c379a00000000000000000000000000000000000000000000000000000000081526004016121e490614dce565b60405180910390fd5b60058190806001815401808255809150509060018203906000526020600020016000909192909190916101000a81548173ffffffffffffffffffffffffffffffffffffffff021916908373ffffffffffffffffffffffffffffffffffffffff160217905550506001600254016002819055506001600360008373ffffffffffffffffffffffffffffffffffffffff1673ffffffffffffffffffffffffffffffffffffffff16815260200190815260200160002060006101000a81548160ff02191690831515021790555060c06040519081016040528060025481526020018581526020018481526020018381526020018273ffffffffffffffffffffffffffffffffffffffff16815260200160011515815250600460008373ffffffffffffffffffffffffffffffffffffffff1673ffffffffffffffffffffffffffffffffffffffff168152602001908152602001600020600082015181600001556020820151816001019080519060200190612365929190613cd1565b506040820151816002019080519060200190612382929190613cd1565b50606082015181600301908051906020019061239f929190613cd1565b5060808201518160040160006101000a81548173ffffffffffffffffffffffffffffffffffffffff021916908373ffffffffffffffffffffffffffffffffffffffff16021790555060a08201518160040160146101000a81548160ff02191690831515021790555090505050505050565b6000606080606060008060008090505b6005805490508110156124c257876004600060058481548110151561244157fe5b9060005260206000200160009054906101000a900473ffffffffffffffffffffffffffffffffffffffff1673ffffffffffffffffffffffffffffffffffffffff1673ffffffffffffffffffffffffffffffffffffffff1681526020019081526020016000206000015414156124b5576124c2565b8080600101915050612420565b87600460006005848154811015156124d657fe5b9060005260206000200160009054906101000a900473ffffffffffffffffffffffffffffffffffffffff1673ffffffffffffffffffffffffffffffffffffffff1673ffffffffffffffffffffffffffffffffffffffff16815260200190815260200160002060000154141515612581576040517f08c379a000000000000000000000000000000000000000000000000000000000815260040161257890614c6e565b60405180910390fd5b612589613c02565b6004600060058481548110151561259c57fe5b9060005260206000200160009054906101000a900473ffffffffffffffffffffffffffffffffffffffff1673ffffffffffffffffffffffffffffffffffffffff1673ffffffffffffffffffffffffffffffffffffffff16815260200190815260200160002060c0604051908101604052908160008201548152602001600182018054600181600116156101000203166002900480601f0160208091040260200160405190810160405280929190818152602001828054600181600116156101000203166002900480156126b05780601f10612685576101008083540402835291602001916126b0565b820191906000526020600020905b81548152906001019060200180831161269357829003601f168201915b50505050508152602001600282018054600181600116156101000203166002900480601f0160208091040260200160405190810160405280929190818152602001828054600181600116156101000203166002900480156127525780601f1061272757610100808354040283529160200191612752565b820191906000526020600020905b81548152906001019060200180831161273557829003601f168201915b50505050508152602001600382018054600181600116156101000203166002900480601f0160208091040260200160405190810160405280929190818152602001828054600181600116156101000203166002900480156127f45780601f106127c9576101008083540402835291602001916127f4565b820191906000526020600020905b8154815290600101906020018083116127d757829003601f168201915b505050505081526020016004820160009054906101000a900473ffffffffffffffffffffffffffffffffffffffff1673ffffffffffffffffffffffffffffffffffffffff1673ffffffffffffffffffffffffffffffffffffffff1681526020016004820160149054906101000a900460ff1615151515815250509050806000015181602001518260400151836060015184608001518560a00151849450839350829250975097509750975097509750505091939550919395565b606080606080606080600860008873ffffffffffffffffffffffffffffffffffffffff1673ffffffffffffffffffffffffffffffffffffffff16815260200190815260200160002060003373ffffffffffffffffffffffffffffffffffffffff1673ffffffffffffffffffffffffffffffffffffffff16815260200190815260200160002060009054906101000a900460ff161515612982576040517f08c379a000000000000000000000000000000000000000000000000000000000815260040161297990614bce565b60405180910390fd5b600a60008873ffffffffffffffffffffffffffffffffffffffff1673ffffffffffffffffffffffffffffffffffffffff16815260200190815260200160002060009054906101000a900460ff161515612a10576040517f08c379a0000000000000000000000000000000000000000000000000000000008152600401612a0790614d8e565b60405180910390fd5b612a18613d51565b600960008973ffffffffffffffffffffffffffffffffffffffff1673ffffffffffffffffffffffffffffffffffffffff168152602001908152602001600020610120604051908101604052908160008201548152602001600182018054600181600116156101000203166002900480601f016020809104026020016040519081016040528092919081815260200182805460018160011615610100020316600290048015612b075780601f10612adc57610100808354040283529160200191612b07565b820191906000526020600020905b815481529060010190602001808311612aea57829003601f168201915b50505050508152602001600282018054600181600116156101000203166002900480601f016020809104026020016040519081016040528092919081815260200182805460018160011615610100020316600290048015612ba95780601f10612b7e57610100808354040283529160200191612ba9565b820191906000526020600020905b815481529060010190602001808311612b8c57829003601f168201915b50505050508152602001600382018054600181600116156101000203166002900480601f016020809104026020016040519081016040528092919081815260200182805460018160011615610100020316600290048015612c4b5780601f10612c2057610100808354040283529160200191612c4b565b820191906000526020600020905b815481529060010190602001808311612c2e57829003601f168201915b50505050508152602001600482018054600181600116156101000203166002900480601f016020809104026020016040519081016040528092919081815260200182805460018160011615610100020316600290048015612ced5780601f10612cc257610100808354040283529160200191612ced565b820191906000526020600020905b815481529060010190602001808311612cd057829003601f168201915b50505050508152602001600582018054600181600116156101000203166002900480601f016020809104026020016040519081016040528092919081815260200182805460018160011615610100020316600290048015612d8f5780601f10612d6457610100808354040283529160200191612d8f565b820191906000526020600020905b815481529060010190602001808311612d7257829003601f168201915b50505050508152602001600682018054600181600116156101000203166002900480601f016020809104026020016040519081016040528092919081815260200182805460018160011615610100020316600290048015612e315780601f10612e0657610100808354040283529160200191612e31565b820191906000526020600020905b815481529060010190602001808311612e1457829003601f168201915b5050505050815260200160078201805480602002602001604051908101604052809291908181526020016000905b828210156131bc578382906000526020600020906005020160a06040519081016040529081600082018054600181600116156101000203166002900480601f016020809104026020016040519081016040528092919081815260200182805460018160011615610100020316600290048015612f1c5780601f10612ef157610100808354040283529160200191612f1c565b820191906000526020600020905b815481529060010190602001808311612eff57829003601f168201915b50505050508152602001600182018054600181600116156101000203166002900480601f016020809104026020016040519081016040528092919081815260200182805460018160011615610100020316600290048015612fbe5780601f10612f9357610100808354040283529160200191612fbe565b820191906000526020600020905b815481529060010190602001808311612fa157829003601f168201915b50505050508152602001600282018054600181600116156101000203166002900480601f0160208091040260200160405190810160405280929190818152602001828054600181600116156101000203166002900480156130605780601f1061303557610100808354040283529160200191613060565b820191906000526020600020905b81548152906001019060200180831161304357829003601f168201915b50505050508152602001600382018054600181600116156101000203166002900480601f0160208091040260200160405190810160405280929190818152602001828054600181600116156101000203166002900480156131025780601f106130d757610100808354040283529160200191613102565b820191906000526020600020905b8154815290600101906020018083116130e557829003601f168201915b50505050508152602001600482018054600181600116156101000203166002900480601f0160208091040260200160405190810160405280929190818152602001828054600181600116156101000203166002900480156131a45780601f10613179576101008083540402835291602001916131a4565b820191906000526020600020905b81548152906001019060200180831161318757829003601f168201915b50505050508152505081526020019060010190612e5f565b5050505081526020016008820160009054906101000a900473ffffffffffffffffffffffffffffffffffffffff1673ffffffffffffffffffffffffffffffffffffffff1673ffffffffffffffffffffffffffffffffffffffff1681525050905080602001518160400151826060015183608001518460a001518560c001518595508494508393508292508191508090509650965096509650965096505091939550919395565b6000600860008473ffffffffffffffffffffffffffffffffffffffff1673ffffffffffffffffffffffffffffffffffffffff16815260200190815260200160002060008373ffffffffffffffffffffffffffffffffffffffff1673ffffffffffffffffffffffffffffffffffffffff16815260200190815260200160002060009054906101000a900460ff16151515613330576040517f08c379a000000000000000000000000000000000000000000000000000000000815260040161332790614cce565b60405180910390fd5b8173ffffffffffffffffffffffffffffffffffffffff168373ffffffffffffffffffffffffffffffffffffffff16141515156133a1576040517f08c379a000000000000000000000000000000000000000000000000000000000815260040161339890614dae565b60405180910390fd5b600860008473ffffffffffffffffffffffffffffffffffffffff1673ffffffffffffffffffffffffffffffffffffffff16815260200190815260200160002060003373ffffffffffffffffffffffffffffffffffffffff1673ffffffffffffffffffffffffffffffffffffffff16815260200190815260200160002060009054906101000a900460ff16151561346c576040517f08c379a000000000000000000000000000000000000000000000000000000000815260040161346390614c0e565b60405180910390fd5b600a60008473ffffffffffffffffffffffffffffffffffffffff1673ffffffffffffffffffffffffffffffffffffffff16815260200190815260200160002060009054906101000a900460ff1615156134fa576040517f08c379a00000000000000000000000000000000000000000000000000000000081526004016134f190614c2e565b60405180910390fd5b6001600860008573ffffffffffffffffffffffffffffffffffffffff1673ffffffffffffffffffffffffffffffffffffffff16815260200190815260200160002060008473ffffffffffffffffffffffffffffffffffffffff1673ffffffffffffffffffffffffffffffffffffffff16815260200190815260200160002060006101000a81548160ff0219169083151502179055506001905092915050565b6005818154811015156135a857fe5b906000526020600020016000915054906101000a900473ffffffffffffffffffffffffffffffffffffffff1681565b600a60008773ffffffffffffffffffffffffffffffffffffffff1673ffffffffffffffffffffffffffffffffffffffff16815260200190815260200160002060009054906101000a900460ff161515613665576040517f08c379a000000000000000000000000000000000000000000000000000000000815260040161365c90614bae565b60405180910390fd5b600860008773ffffffffffffffffffffffffffffffffffffffff1673ffffffffffffffffffffffffffffffffffffffff16815260200190815260200160002060003373ffffffffffffffffffffffffffffffffffffffff1673ffffffffffffffffffffffffffffffffffffffff16815260200190815260200160002060009054906101000a900460ff161515613730576040517f08c379a000000000000000000000000000000000000000000000000000000000815260040161372790614d4e565b60405180910390fd5b600960008773ffffffffffffffffffffffffffffffffffffffff1673ffffffffffffffffffffffffffffffffffffffff16815260200190815260200160002060070160a060405190810160405280878152602001868152602001858152602001848152602001838152509080600181540180825580915050906001820390600052602060002090600502016000909192909190915060008201518160000190805190602001906137e1929190613cd1565b5060208201518160010190805190602001906137fe929190613cd1565b50604082015181600201908051906020019061381b929190613cd1565b506060820151816003019080519060200190613838929190613cd1565b506080820151816004019080519060200190613855929190613cd1565b50505050505050505050565b60008173ffffffffffffffffffffffffffffffffffffffff163373ffffffffffffffffffffffffffffffffffffffff16141515156138d4576040517f08c379a00000000000000000000000000000000000000000000000000000000081526004016138cb90614b6e565b60405180910390fd5b600860003373ffffffffffffffffffffffffffffffffffffffff1673ffffffffffffffffffffffffffffffffffffffff16815260200190815260200160002060008373ffffffffffffffffffffffffffffffffffffffff1673ffffffffffffffffffffffffffffffffffffffff16815260200190815260200160002060009054906101000a900460ff16151561399f576040517f08c379a000000000000000000000000000000000000000000000000000000000815260040161399690614d2e565b60405180910390fd5b6000600860003373ffffffffffffffffffffffffffffffffffffffff1673ffffffffffffffffffffffffffffffffffffffff16815260200190815260200160002060008473ffffffffffffffffffffffffffffffffffffffff1673ffffffffffffffffffffffffffffffffffffffff16815260200190815260200160002060006101000a81548160ff02191690831515021790555060019050919050565b60003373ffffffffffffffffffffffffffffffffffffffff166000809054906101000a900473ffffffffffffffffffffffffffffffffffffffff1673ffffffffffffffffffffffffffffffffffffffff16141515613ad0576040517f08c379a0000000000000000000000000000000000000000000000000000000008152600401613ac790614aee565b60405180910390fd5b600160008373ffffffffffffffffffffffffffffffffffffffff1673ffffffffffffffffffffffffffffffffffffffff16815260200190815260200160002060009054906101000a900460ff16151515613b5f576040517f08c379a0000000000000000000000000000000000000000000000000000000008152600401613b5690614b0e565b60405180910390fd5b60018060008473ffffffffffffffffffffffffffffffffffffffff1673ffffffffffffffffffffffffffffffffffffffff16815260200190815260200160002060006101000a81548160ff0219169083151502179055508173ffffffffffffffffffffffffffffffffffffffff167fafa166295a35a43bb39382953c2425d7baad8c51d67433474dad5c14da26e20d60405160405180910390a260019050919050565b60c06040519081016040528060008152602001606081526020016060815260200160608152602001600073ffffffffffffffffffffffffffffffffffffffff1681526020016000151581525090565b828054600181600116156101000203166002900490600052602060002090601f016020900481019282601f10613c9257805160ff1916838001178555613cc0565b82800160010185558215613cc0579182015b82811115613cbf578251825591602001919060010190613ca4565b5b509050613ccd9190613db4565b5090565b828054600181600116156101000203166002900490600052602060002090601f016020900481019282601f10613d1257805160ff1916838001178555613d40565b82800160010185558215613d40579182015b82811115613d3f578251825591602001919060010190613d24565b5b509050613d4d9190613db4565b5090565b610120604051908101604052806000815260200160608152602001606081526020016060815260200160608152602001606081526020016060815260200160608152602001600073ffffffffffffffffffffffffffffffffffffffff1681525090565b613dd691905b80821115613dd2576000816000905550600101613dba565b5090565b90565b6000613de58235614f5b565b905092915050565b600082601f8301121515613e0057600080fd5b8135613e13613e0e82614eac565b614e7f565b91508082526020830160208301858383011115613e2f57600080fd5b613e3a838284614f77565b50505092915050565b6000613e4f8235614f6d565b905092915050565b600060208284031215613e6957600080fd5b6000613e7784828501613dd9565b91505092915050565b60008060408385031215613e9357600080fd5b6000613ea185828601613dd9565b9250506020613eb285828601613dd9565b9150509250929050565b60008060008060008060c08789031215613ed557600080fd5b6000613ee389828a01613dd9565b965050602087013567ffffffffffffffff811115613f0057600080fd5b613f0c89828a01613ded565b955050604087013567ffffffffffffffff811115613f2957600080fd5b613f3589828a01613ded565b945050606087013567ffffffffffffffff811115613f5257600080fd5b613f5e89828a01613ded565b935050608087013567ffffffffffffffff811115613f7b57600080fd5b613f8789828a01613ded565b92505060a087013567ffffffffffffffff811115613fa457600080fd5b613fb089828a01613ded565b9150509295509295509295565b60008060008060808587031215613fd357600080fd5b600085013567ffffffffffffffff811115613fed57600080fd5b613ff987828801613ded565b945050602085013567ffffffffffffffff81111561401657600080fd5b61402287828801613ded565b935050604085013567ffffffffffffffff81111561403f57600080fd5b61404b87828801613ded565b925050606061405c87828801613dd9565b91505092959194509250565b60008060008060008060c0878903121561408157600080fd5b600087013567ffffffffffffffff81111561409b57600080fd5b6140a789828a01613ded565b965050602087013567ffffffffffffffff8111156140c457600080fd5b6140d089828a01613ded565b955050604087013567ffffffffffffffff8111156140ed57600080fd5b6140f989828a01613ded565b945050606087013567ffffffffffffffff81111561411657600080fd5b61412289828a01613ded565b935050608087013567ffffffffffffffff81111561413f57600080fd5b61414b89828a01613ded565b92505060a087013567ffffffffffffffff81111561416857600080fd5b61417489828a01613ded565b9150509295509295509295565b60006020828403121561419357600080fd5b60006141a184828501613e43565b91505092915050565b6141b381614f13565b82525050565b60006141c482614ee5565b808452602084019350836020820285016141dd85614ed8565b60005b848110156142165783830388526141f883835161426c565b925061420382614f06565b91506020880197506001810190506141e0565b508196508694505050505092915050565b61423081614f25565b82525050565b600061424182614efb565b808452614255816020860160208601614f86565b61425e81614fb9565b602085010191505092915050565b600061427782614ef0565b80845261428b816020860160208601614f86565b61429481614fb9565b602085010191505092915050565b6000601e82527f53747564656e74206163636f756e7420616c72656164792065786973747300006020830152604082019050919050565b6000601182527f43616e742061646420796f757273656c660000000000000000000000000000006020830152604082019050919050565b6000602b82527f4f6e6c79204f776e657220686173207065726d697373696f6e20746f20646f2060208301527f7468617420616374696f6e0000000000000000000000000000000000000000006040830152606082019050919050565b6000601982527f436f6c6c65676520616c726561647920657869737473212121000000000000006020830152604082019050919050565b6000601c82527f73747564656e74207265636f726420646f65736e2774206578697374000000006020830152604082019050919050565b6000602a82527f50726f666573736f72206973206e6f7420417070726f766564206f7220646f6560208301527f736e2774206578697374000000000000000000000000000000000000000000006040830152606082019050919050565b6000601482527f43616e742072656d6f766520796f757273656c660000000000000000000000006020830152604082019050919050565b6000601682527f416c726561647920596f757220746865206f776e6572000000000000000000006020830152604082019050919050565b6000601682527f53747564656e74204e6f742072656769737465726564000000000000000000006020830152604082019050919050565b6000601c82527f4e6f207065726d697373696f6e20746f20676574205265636f726473000000006020830152604082019050919050565b6000602582527f4164647265737320646f6573206e6f742062656c6f6e6720746f20636f6c6c6560208301527f67652121210000000000000000000000000000000000000000000000000000006040830152606082019050919050565b6000602382527f596f7520646f6e27742068617665207065726d697373696f6e20746f2061636360208301527f65737300000000000000000000000000000000000000000000000000000000006040830152606082019050919050565b6000601782527f55736572204e6f742052656769737465726564207965740000000000000000006020830152604082019050919050565b6000601282527f416c7265616479204e6f204175746821212100000000000000000000000000006020830152604082019050919050565b6000601a82527f50726f666573736f7220494420646f65736e27742065786973740000000000006020830152604082019050919050565b6000602d82527f43616e2774207265766f6b6520636f6c6c656765206163636573732066726f6d60208301527f206f776e657220284d48524429000000000000000000000000000000000000006040830152606082019050919050565b6000602482527f73747564656e74206e6f74207369676e656420696e20746f206f7572206e657460208301527f776f726b000000000000000000000000000000000000000000000000000000006040830152606082019050919050565b6000601082527f416c7265616479202041757468212121000000000000000000000000000000006020830152604082019050919050565b6000601282527f416c726561647920417574686f726973656400000000000000000000000000006020830152604082019050919050565b6000602d82527f4f6e6c7920436f6c6c65676520686173207065726d697373696f6e20746f206460208301527f6f207468617420616374696f6e000000000000000000000000000000000000006040830152606082019050919050565b6000601682527f416c7265616479204e6f7420417574686f7269736564000000000000000000006020830152604082019050919050565b6000601d82527f4e6f207065726d697373696f6e20746f206164642053747564656e74730000006020830152604082019050919050565b6000601882527f63616e27742072656d6f76652073616d6520706572736f6e00000000000000006020830152604082019050919050565b6000602682527f4e6f2053747564656e747320666f756e642061742074686520676976656e206160208301527f64647265737300000000000000000000000000000000000000000000000000006040830152606082019050919050565b6000601582527f63616e2774206164642073616d6520706572736f6e00000000000000000000006020830152604082019050919050565b6000601382527f416c726561647920612050726f666573736f72000000000000000000000000006020830152604082019050919050565b61497181614f51565b82525050565b600060208201905061498c60008301846141aa565b92915050565b600060a08201905081810360008301526149ac81886141b9565b905081810360208301526149c081876141b9565b905081810360408301526149d481866141b9565b905081810360608301526149e881856141b9565b905081810360808301526149fc81846141b9565b90509695505050505050565b6000602082019050614a1d6000830184614227565b92915050565b600060c0820190508181036000830152614a3d8189614236565b90508181036020830152614a518188614236565b90508181036040830152614a658187614236565b90508181036060830152614a798186614236565b90508181036080830152614a8d8185614236565b905081810360a0830152614aa18184614236565b9050979650505050505050565b60006020820190508181036000830152614ac7816142a2565b9050919050565b60006020820190508181036000830152614ae7816142d9565b9050919050565b60006020820190508181036000830152614b0781614310565b9050919050565b60006020820190508181036000830152614b278161436d565b9050919050565b60006020820190508181036000830152614b47816143a4565b9050919050565b60006020820190508181036000830152614b67816143db565b9050919050565b60006020820190508181036000830152614b8781614438565b9050919050565b60006020820190508181036000830152614ba78161446f565b9050919050565b60006020820190508181036000830152614bc7816144a6565b9050919050565b60006020820190508181036000830152614be7816144dd565b9050919050565b60006020820190508181036000830152614c0781614514565b9050919050565b60006020820190508181036000830152614c2781614571565b9050919050565b60006020820190508181036000830152614c47816145ce565b9050919050565b60006020820190508181036000830152614c6781614605565b9050919050565b60006020820190508181036000830152614c878161463c565b9050919050565b60006020820190508181036000830152614ca781614673565b9050919050565b60006020820190508181036000830152614cc7816146d0565b9050919050565b60006020820190508181036000830152614ce78161472d565b9050919050565b60006020820190508181036000830152614d0781614764565b9050919050565b60006020820190508181036000830152614d278161479b565b9050919050565b60006020820190508181036000830152614d47816147f8565b9050919050565b60006020820190508181036000830152614d678161482f565b9050919050565b60006020820190508181036000830152614d8781614866565b9050919050565b60006020820190508181036000830152614da78161489d565b9050919050565b60006020820190508181036000830152614dc7816148fa565b9050919050565b60006020820190508181036000830152614de781614931565b9050919050565b6000602082019050614e036000830184614968565b92915050565b600060c082019050614e1e6000830189614968565b8181036020830152614e308188614236565b90508181036040830152614e448187614236565b90508181036060830152614e588186614236565b9050614e6760808301856141aa565b614e7460a0830184614227565b979650505050505050565b6000604051905081810181811067ffffffffffffffff82111715614ea257600080fd5b8060405250919050565b600067ffffffffffffffff821115614ec357600080fd5b601f19601f8301169050602081019050919050565b6000602082019050919050565b600081519050919050565b600081519050919050565b600081519050919050565b6000602082019050919050565b6000614f1e82614f31565b9050919050565b60008115159050919050565b600073ffffffffffffffffffffffffffffffffffffffff82169050919050565b6000819050919050565b6000614f6682614f31565b9050919050565b6000819050919050565b82818337600083830152505050565b60005b83811015614fa4578082015181840152602081019050614f89565b83811115614fb3576000848401525b50505050565b6000601f19601f830116905091905056fea265627a7a723058201cc6e706c76e1c726344e5cee856b120eadbc87bcd0852db284e20a95de9950e6c6578706572696d656e74616cf50037",
  "source": "/**\n *Submitted for verification at Etherscan.io on 2020-10-02\n*/\n\npragma solidity >=0.4.22 <0.7.0;\npragma experimental ABIEncoderV2;\n\ncontract ownable {\n    \n    address public owner;\n    mapping(address=>bool) isCollege;\n    event OwnerChanged(address indexed _from,address indexed _to);\n    event CollegeAdded(address indexed College_Address);\n    event CollegeRemoved(address indexed College_Address);\n    constructor() public{\n        owner=msg.sender;\n        isCollege[msg.sender]=true;\n    }\n    \n    modifier onlyOwner(){\n        require(owner == msg.sender,\"Only Owner has permission to do that action\");\n        _;\n    }\n    modifier onlyCollege(){\n        require(isCollege[msg.sender] == true,\"Only College has permission to do that action\");\n        _;\n    }\n    \n    function setOwner(address _owner) public onlyOwner returns(bool success){\n        require(msg.sender!=_owner,\"Already Your the owner\");\n        owner = _owner;\n        emit OwnerChanged(msg.sender, _owner);\n        return true;\n    }\n    function addCollege(address _address) public onlyOwner returns(bool success){\n        require(!isCollege[_address],\"College already exists!!!\");\n        isCollege[_address]=true;\n        emit CollegeAdded(_address);\n        return true;\n    }\n    function removeCollege(address _address) public onlyOwner returns(bool success){\n        require(_address!=owner,\"Can't revoke college access from owner (MHRD)\");\n        require(isCollege[_address],\"Address does not belong to college!!!\");\n        isCollege[_address]=false;\n        emit CollegeRemoved(_address);\n        return true;\n    }\n}\n\n\n\ncontract Professor is ownable {\n    uint256 public index;\n    mapping(address=>bool) isProfessor;\n    struct Professor {\n        uint256 id;\n        string hname;\n        string haddress;\n        string hcontact;\n        address addr;\n        bool isApproved;\n    }\n    mapping(address=>Professor) Professors;\n    address[] public ProfessorList;\n    \n    modifier onlyProfessor(){\n        require(isProfessor[msg.sender],\"Only Professors can add Students\");\n        _;\n    }\n    \n    function addProfessor(string memory _hname,string memory _haddress,string memory _hcontact,address _addr) public onlyCollege{\n        require(!isProfessor[_addr],\"Already a Professor\");\n        ProfessorList.push(_addr);\n        index = index + 1;\n        isProfessor[_addr]=true;\n        Professors[_addr]=Professor(index,_hname,_haddress,_hcontact,_addr,true);\n    }\n    \n    function getProfessorById(uint256 _id) public view returns(uint256 id,string memory hname,string memory haddress , string memory hcontact ,address addr , bool isApproved)  {\n        uint256 i=0;\n        for(;i<ProfessorList.length;i++){\n        if(Professors[ProfessorList[i]].id==_id){\n            break;\n        }\n    }    \n        require(Professors[ProfessorList[i]].id==_id,\"Professor ID doesn't exist\");\n        Professor memory tmp = Professors[ProfessorList[i]];\n        return (tmp.id,tmp.hname,tmp.haddress,tmp.hcontact,tmp.addr,tmp.isApproved);\n    }\n    \n    function getProfessorByAddress(address _address) public view returns(uint256 id,string memory hname,string memory haddress , string memory hcontact ,address addr , bool isApproved) {\n        require(Professors[_address].isApproved,\"Professor is not Approved or doesn't exist\");\n        Professor memory tmp = Professors[_address];\n        return (tmp.id,tmp.hname,tmp.haddress,tmp.hcontact,tmp.addr,tmp.isApproved);\n    }    \n    \n}\n\ncontract Student is Professor{\n    \n    uint256 public pindex=0;\n    \n    struct Records {\n    string hname;\n    string reason;\n    string admittedOn;\n    string dischargedOn;\n    string ipfs;\n    }\n    \n    struct Student{\n        uint256 id;\n        string name;\n        string phone;\n        string gender;\n        string dob;\n        string bloodgroup;\n        string allergies;\n        Records[] records;\n        address addr;\n    }\n\n    address[] private StudentList;\n    mapping(address=>mapping(address=>bool)) isAuth;\n    mapping(address=>Student) Students;\n    mapping(address=>bool) isStudent;\n\n    \n    function addRecord(address _addr,string memory _hname,string memory _reason,string memory _admittedOn,string memory _dischargedOn,string memory _ipfs) public{\n        require(isStudent[_addr],\"Student Not registered\");\n        require(isAuth[_addr][msg.sender],\"No permission to add Students\");\n        Students[_addr].records.push(Records(_hname,_reason,_admittedOn,_dischargedOn,_ipfs));\n        \n    }\n    \n    function addStudent(string memory _name,string memory _phone,string memory _gender,string memory _dob,string memory _bloodgroup,string memory _allergies) public {\n        require(!isStudent[msg.sender],\"Student account already exists\");\n        StudentList.push(msg.sender);\n        pindex = pindex + 1;\n        isStudent[msg.sender]=true;\n        isAuth[msg.sender][msg.sender]=true;\n        Students[msg.sender].id=pindex;\n        Students[msg.sender].name=_name;\n        Students[msg.sender].phone=_phone;\n        Students[msg.sender].gender=_gender;\n        Students[msg.sender].dob=_dob;\n        Students[msg.sender].bloodgroup=_bloodgroup;\n        Students[msg.sender].allergies=_allergies;\n        Students[msg.sender].addr=msg.sender;\n    }\n    \n    function getStudentDetails(address _addr) public view returns(string memory _name,string memory _phone,string memory _gender,string memory _dob,string memory _bloodgroup,string memory _allergies){\n        require(isAuth[_addr][msg.sender],\"No permission to get Records\");\n        require(isStudent[_addr],\"No Students found at the given address\");\n        Student memory tmp = Students[_addr];\n        return (tmp.name,tmp.phone,tmp.gender,tmp.dob,tmp.bloodgroup,tmp.allergies);\n    }\n    \n    function getStudentRecords(address _addr) public view returns(string[] memory _hname,string[] memory _reason,string[] memory _admittedOn,string[] memory _dischargedOn,string[] memory ipfs){\n        require(isAuth[_addr][msg.sender],\"No permission to get Records\");\n        require(isStudent[_addr],\"student not signed in to our network\");\n        require(Students[_addr].records.length>0,\"student record doesn't exist\");\n        string[] memory Hname = new string[](Students[_addr].records.length);\n        string[] memory Reason = new string[](Students[_addr].records.length);\n        string[] memory AdmOn = new string[](Students[_addr].records.length);\n        string[] memory DisOn = new string[](Students[_addr].records.length);\n        string[] memory IPFS = new string[](Students[_addr].records.length);\n        for(uint256 i=0;i<Students[_addr].records.length;i++){\n            Hname[i]=Students[_addr].records[i].hname;\n            Reason[i]=Students[_addr].records[i].reason;\n            AdmOn[i]=Students[_addr].records[i].admittedOn;\n            DisOn[i]=Students[_addr].records[i].dischargedOn;\n            IPFS[i]=Students[_addr].records[i].ipfs;\n        }\n        return(Hname,Reason,AdmOn,DisOn,IPFS);\n    }\n    \n    function addAuth(address _addr) public returns(bool success) {\n        require(!isAuth[msg.sender][_addr],\"Already Authorised\");\n        require(msg.sender!=_addr,\"Cant add yourself\");\n        isAuth[msg.sender][_addr] = true;\n        return true;\n    }\n\n    function revokeAuth(address _addr) public returns(bool success) {\n        require(msg.sender!=_addr,\"Cant remove yourself\");\n        require(isAuth[msg.sender][_addr],\"Already Not Authorised\");\n        isAuth[msg.sender][_addr] = false;\n        return true;\n    }\n    \n    function addAuthFromTo(address _from,address _to) public returns(bool success) {\n        require(!isAuth[_from][_to],\"Already  Auth!!!\");\n        require(_from!=_to,\"can't add same person\");\n        require(isAuth[_from][msg.sender],\"You don't have permission to access\");\n        require(isStudent[_from],\"User Not Registered yet\");\n        isAuth[_from][_to] = true;\n        return true;\n    }\n    \n    function removeAuthFromTo(address _from,address _to) public returns(bool success) {\n        require(isAuth[_from][_to],\"Already No Auth!!!\");\n        require(_from!=_to,\"can't remove same person\");\n        require(isAuth[_from][msg.sender],\"You don't have permission to access\");\n        require(isStudent[_from],\"User Not Registered yet\");\n        isAuth[_from][_to] = false;\n        return true;\n    }\n    \n\n}",
  "sourcePath": "C:/Users/HP/Documents/IT465/Project_file_upload4/contracts/SmartContract.sol",
  "compiler": {
    "name": "solc",
    "version": "0.5.0+commit.1d4f565a.Emscripten.clang"
  },
  "schemaVersion": "3.0.1",
  "updatedAt": "2022-11-06T13:03:11.488Z",
  "devdoc": {
    "methods": {}
  },
  "userdoc": {
    "methods": {}
  }
}